{
  "contractName": "AgriJobs",
  "abi": [
    {
      "anonymous": false,
      "inputs": [
        {
          "indexed": false,
          "internalType": "uint256",
          "name": "id",
          "type": "uint256"
        },
        {
          "indexed": false,
          "internalType": "address",
          "name": "farmer",
          "type": "address"
        },
        {
          "indexed": false,
          "internalType": "string",
          "name": "title",
          "type": "string"
        },
        {
          "indexed": false,
          "internalType": "string",
          "name": "description",
          "type": "string"
        },
        {
          "indexed": false,
          "internalType": "string",
          "name": "location",
          "type": "string"
        },
        {
          "indexed": false,
          "internalType": "string",
          "name": "contactNumber",
          "type": "string"
        },
        {
          "indexed": false,
          "internalType": "uint256",
          "name": "wage",
          "type": "uint256"
        },
        {
          "indexed": false,
          "internalType": "bool",
          "name": "isAvailable",
          "type": "bool"
        }
      ],
      "name": "JobPosted",
      "type": "event"
    },
    {
      "inputs": [],
      "name": "jobCount",
      "outputs": [
        {
          "internalType": "uint256",
          "name": "",
          "type": "uint256"
        }
      ],
      "stateMutability": "view",
      "type": "function",
      "constant": true
    },
    {
      "inputs": [
        {
          "internalType": "uint256",
          "name": "",
          "type": "uint256"
        }
      ],
      "name": "jobs",
      "outputs": [
        {
          "internalType": "uint256",
          "name": "id",
          "type": "uint256"
        },
        {
          "internalType": "address",
          "name": "farmer",
          "type": "address"
        },
        {
          "internalType": "string",
          "name": "title",
          "type": "string"
        },
        {
          "internalType": "string",
          "name": "description",
          "type": "string"
        },
        {
          "internalType": "string",
          "name": "location",
          "type": "string"
        },
        {
          "internalType": "string",
          "name": "contactNumber",
          "type": "string"
        },
        {
          "internalType": "uint256",
          "name": "wage",
          "type": "uint256"
        },
        {
          "internalType": "bool",
          "name": "isAvailable",
          "type": "bool"
        }
      ],
      "stateMutability": "view",
      "type": "function",
      "constant": true
    },
    {
      "inputs": [
        {
          "internalType": "string",
          "name": "_title",
          "type": "string"
        },
        {
          "internalType": "string",
          "name": "_description",
          "type": "string"
        },
        {
          "internalType": "string",
          "name": "_location",
          "type": "string"
        },
        {
          "internalType": "string",
          "name": "_contactNumber",
          "type": "string"
        },
        {
          "internalType": "uint256",
          "name": "_wage",
          "type": "uint256"
        }
      ],
      "name": "postJob",
      "outputs": [],
      "stateMutability": "nonpayable",
      "type": "function"
    },
    {
      "inputs": [
        {
          "internalType": "uint256",
          "name": "_jobId",
          "type": "uint256"
        }
      ],
      "name": "fetchJob",
      "outputs": [
        {
          "internalType": "uint256",
          "name": "",
          "type": "uint256"
        },
        {
          "internalType": "address",
          "name": "",
          "type": "address"
        },
        {
          "internalType": "string",
          "name": "",
          "type": "string"
        },
        {
          "internalType": "string",
          "name": "",
          "type": "string"
        },
        {
          "internalType": "string",
          "name": "",
          "type": "string"
        },
        {
          "internalType": "string",
          "name": "",
          "type": "string"
        },
        {
          "internalType": "uint256",
          "name": "",
          "type": "uint256"
        },
        {
          "internalType": "bool",
          "name": "",
          "type": "bool"
        }
      ],
      "stateMutability": "view",
      "type": "function",
      "constant": true
    },
    {
      "inputs": [],
      "name": "fetchJobs",
      "outputs": [
        {
          "components": [
            {
              "internalType": "uint256",
              "name": "id",
              "type": "uint256"
            },
            {
              "internalType": "address",
              "name": "farmer",
              "type": "address"
            },
            {
              "internalType": "string",
              "name": "title",
              "type": "string"
            },
            {
              "internalType": "string",
              "name": "description",
              "type": "string"
            },
            {
              "internalType": "string",
              "name": "location",
              "type": "string"
            },
            {
              "internalType": "string",
              "name": "contactNumber",
              "type": "string"
            },
            {
              "internalType": "uint256",
              "name": "wage",
              "type": "uint256"
            },
            {
              "internalType": "bool",
              "name": "isAvailable",
              "type": "bool"
            }
          ],
          "internalType": "struct AgriJobs.Job[]",
          "name": "",
          "type": "tuple[]"
        }
      ],
      "stateMutability": "view",
      "type": "function",
      "constant": true
    },
    {
      "inputs": [
        {
          "internalType": "uint256",
          "name": "_jobId",
          "type": "uint256"
        }
      ],
      "name": "markJobAsUnavailable",
      "outputs": [],
      "stateMutability": "nonpayable",
      "type": "function"
    }
  ],
  "bytecode": "0x60806040526000805534801561001457600080fd5b50611682806100246000396000f3fe608060405234801561001057600080fd5b50600436106100625760003560e01c8063180aedf314610067578063208846641461009e5780634c5d8a0f146100ba57806361011df7146100d857806367c58ddb1461010f5780638cfbdc481461012d575b600080fd5b610081600480360381019061007c9190610ff7565b610149565b6040516100959897969594939291906112fd565b60405180910390f35b6100b860048036038101906100b39190610ff7565b6103de565b005b6100c26104b4565b6040516100cf91906112e2565b60405180910390f35b6100f260048036038101906100ed9190610ff7565b6104ba565b6040516101069897969594939291906112fd565b60405180910390f35b6101176107fa565b60405161012491906112a0565b60405180910390f35b61014760048036038101906101429190610f20565b610be2565b005b60016020528060005260406000206000915090508060000154908060010160009054906101000a900473ffffffffffffffffffffffffffffffffffffffff16908060020180546101989061151c565b80601f01602080910402602001604051908101604052809291908181526020018280546101c49061151c565b80156102115780601f106101e657610100808354040283529160200191610211565b820191906000526020600020905b8154815290600101906020018083116101f457829003601f168201915b5050505050908060030180546102269061151c565b80601f01602080910402602001604051908101604052809291908181526020018280546102529061151c565b801561029f5780601f106102745761010080835404028352916020019161029f565b820191906000526020600020905b81548152906001019060200180831161028257829003601f168201915b5050505050908060040180546102b49061151c565b80601f01602080910402602001604051908101604052809291908181526020018280546102e09061151c565b801561032d5780601f106103025761010080835404028352916020019161032d565b820191906000526020600020905b81548152906001019060200180831161031057829003601f168201915b5050505050908060050180546103429061151c565b80601f016020809104026020016040519081016040528092919081815260200182805461036e9061151c565b80156103bb5780601f10610390576101008083540402835291602001916103bb565b820191906000526020600020905b81548152906001019060200180831161039e57829003601f168201915b5050505050908060060154908060070160009054906101000a900460ff16905088565b3373ffffffffffffffffffffffffffffffffffffffff166001600083815260200190815260200160002060010160009054906101000a900473ffffffffffffffffffffffffffffffffffffffff1673ffffffffffffffffffffffffffffffffffffffff1614610482576040517f08c379a0000000000000000000000000000000000000000000000000000000008152600401610479906112c2565b60405180910390fd5b60006001600083815260200190815260200160002060070160006101000a81548160ff02191690831515021790555050565b60005481565b6000806060806060806000806000600160008b815260200190815260200160002060405180610100016040529081600082015481526020016001820160009054906101000a900473ffffffffffffffffffffffffffffffffffffffff1673ffffffffffffffffffffffffffffffffffffffff1673ffffffffffffffffffffffffffffffffffffffff1681526020016002820180546105579061151c565b80601f01602080910402602001604051908101604052809291908181526020018280546105839061151c565b80156105d05780601f106105a5576101008083540402835291602001916105d0565b820191906000526020600020905b8154815290600101906020018083116105b357829003601f168201915b505050505081526020016003820180546105e99061151c565b80601f01602080910402602001604051908101604052809291908181526020018280546106159061151c565b80156106625780601f1061063757610100808354040283529160200191610662565b820191906000526020600020905b81548152906001019060200180831161064557829003601f168201915b5050505050815260200160048201805461067b9061151c565b80601f01602080910402602001604051908101604052809291908181526020018280546106a79061151c565b80156106f45780601f106106c9576101008083540402835291602001916106f4565b820191906000526020600020905b8154815290600101906020018083116106d757829003601f168201915b5050505050815260200160058201805461070d9061151c565b80601f01602080910402602001604051908101604052809291908181526020018280546107399061151c565b80156107865780601f1061075b57610100808354040283529160200191610786565b820191906000526020600020905b81548152906001019060200180831161076957829003601f168201915b50505050508152602001600682015481526020016007820160009054906101000a900460ff1615151515815250509050806000015181602001518260400151836060015184608001518560a001518660c001518760e001519850985098509850985098509850985050919395975091939597565b60606000805467ffffffffffffffff81111561083f577f4e487b7100000000000000000000000000000000000000000000000000000000600052604160045260246000fd5b60405190808252806020026020018201604052801561087857816020015b610865610da3565b81526020019060019003908161085d5790505b5090506000600190505b6000548111610bda576001600082815260200190815260200160002060405180610100016040529081600082015481526020016001820160009054906101000a900473ffffffffffffffffffffffffffffffffffffffff1673ffffffffffffffffffffffffffffffffffffffff1673ffffffffffffffffffffffffffffffffffffffff16815260200160028201805461091a9061151c565b80601f01602080910402602001604051908101604052809291908181526020018280546109469061151c565b80156109935780601f1061096857610100808354040283529160200191610993565b820191906000526020600020905b81548152906001019060200180831161097657829003601f168201915b505050505081526020016003820180546109ac9061151c565b80601f01602080910402602001604051908101604052809291908181526020018280546109d89061151c565b8015610a255780601f106109fa57610100808354040283529160200191610a25565b820191906000526020600020905b815481529060010190602001808311610a0857829003601f168201915b50505050508152602001600482018054610a3e9061151c565b80601f0160208091040260200160405190810160405280929190818152602001828054610a6a9061151c565b8015610ab75780601f10610a8c57610100808354040283529160200191610ab7565b820191906000526020600020905b815481529060010190602001808311610a9a57829003601f168201915b50505050508152602001600582018054610ad09061151c565b80601f0160208091040260200160405190810160405280929190818152602001828054610afc9061151c565b8015610b495780601f10610b1e57610100808354040283529160200191610b49565b820191906000526020600020905b815481529060010190602001808311610b2c57829003601f168201915b50505050508152602001600682015481526020016007820160009054906101000a900460ff16151515158152505082600183610b85919061145e565b81518110610bbc577f4e487b7100000000000000000000000000000000000000000000000000000000600052603260045260246000fd5b60200260200101819052508080610bd29061154e565b915050610882565b508091505090565b600080815480929190610bf49061154e565b919050555060405180610100016040528060005481526020013373ffffffffffffffffffffffffffffffffffffffff1681526020018681526020018581526020018481526020018381526020018281526020016001151581525060016000805481526020019081526020016000206000820151816000015560208201518160010160006101000a81548173ffffffffffffffffffffffffffffffffffffffff021916908373ffffffffffffffffffffffffffffffffffffffff1602179055506040820151816002019080519060200190610ccf929190610e00565b506060820151816003019080519060200190610cec929190610e00565b506080820151816004019080519060200190610d09929190610e00565b5060a0820151816005019080519060200190610d26929190610e00565b5060c0820151816006015560e08201518160070160006101000a81548160ff0219169083151502179055509050507f530e5e9379a3e52ecf08f12b124d507e9744fdbe475a75fecf2e4ea6680f2d786000543387878787876001604051610d949897969594939291906112fd565b60405180910390a15050505050565b60405180610100016040528060008152602001600073ffffffffffffffffffffffffffffffffffffffff16815260200160608152602001606081526020016060815260200160608152602001600081526020016000151581525090565b828054610e0c9061151c565b90600052602060002090601f016020900481019282610e2e5760008555610e75565b82601f10610e4757805160ff1916838001178555610e75565b82800160010185558215610e75579182015b82811115610e74578251825591602001919060010190610e59565b5b509050610e829190610e86565b5090565b5b80821115610e9f576000816000905550600101610e87565b5090565b6000610eb6610eb1846113c8565b611397565b905082815260208101848484011115610ece57600080fd5b610ed98482856114da565b509392505050565b600082601f830112610ef257600080fd5b8135610f02848260208601610ea3565b91505092915050565b600081359050610f1a81611635565b92915050565b600080600080600060a08688031215610f3857600080fd5b600086013567ffffffffffffffff811115610f5257600080fd5b610f5e88828901610ee1565b955050602086013567ffffffffffffffff811115610f7b57600080fd5b610f8788828901610ee1565b945050604086013567ffffffffffffffff811115610fa457600080fd5b610fb088828901610ee1565b935050606086013567ffffffffffffffff811115610fcd57600080fd5b610fd988828901610ee1565b9250506080610fea88828901610f0b565b9150509295509295909350565b60006020828403121561100957600080fd5b600061101784828501610f0b565b91505092915050565b600061102c83836111bd565b905092915050565b61103d81611492565b82525050565b61104c81611492565b82525050565b600061105d82611408565b611067818561142b565b935083602082028501611079856113f8565b8060005b858110156110b557848403895281516110968582611020565b94506110a18361141e565b925060208a0199505060018101905061107d565b50829750879550505050505092915050565b6110d0816114a4565b82525050565b6110df816114a4565b82525050565b60006110f082611413565b6110fa818561143c565b935061110a8185602086016114e9565b61111381611624565b840191505092915050565b600061112982611413565b611133818561144d565b93506111438185602086016114e9565b61114c81611624565b840191505092915050565b6000611164603e8361144d565b91507f4f6e6c7920746865206661726d65722077686f20706f7374656420746865206a60008301527f6f622063616e206d61726b20697420617320756e617661696c61626c652e00006020830152604082019050919050565b6000610100830160008301516111d66000860182611282565b5060208301516111e96020860182611034565b506040830151848203604086015261120182826110e5565b9150506060830151848203606086015261121b82826110e5565b9150506080830151848203608086015261123582826110e5565b91505060a083015184820360a086015261124f82826110e5565b91505060c083015161126460c0860182611282565b5060e083015161127760e08601826110c7565b508091505092915050565b61128b816114d0565b82525050565b61129a816114d0565b82525050565b600060208201905081810360008301526112ba8184611052565b905092915050565b600060208201905081810360008301526112db81611157565b9050919050565b60006020820190506112f76000830184611291565b92915050565b600061010082019050611313600083018b611291565b611320602083018a611043565b8181036040830152611332818961111e565b90508181036060830152611346818861111e565b9050818103608083015261135a818761111e565b905081810360a083015261136e818661111e565b905061137d60c0830185611291565b61138a60e08301846110d6565b9998505050505050505050565b6000604051905081810181811067ffffffffffffffff821117156113be576113bd6115f5565b5b8060405250919050565b600067ffffffffffffffff8211156113e3576113e26115f5565b5b601f19601f8301169050602081019050919050565b6000819050602082019050919050565b600081519050919050565b600081519050919050565b6000602082019050919050565b600082825260208201905092915050565b600082825260208201905092915050565b600082825260208201905092915050565b6000611469826114d0565b9150611474836114d0565b92508282101561148757611486611597565b5b828203905092915050565b600061149d826114b0565b9050919050565b60008115159050919050565b600073ffffffffffffffffffffffffffffffffffffffff82169050919050565b6000819050919050565b82818337600083830152505050565b60005b838110156115075780820151818401526020810190506114ec565b83811115611516576000848401525b50505050565b6000600282049050600182168061153457607f821691505b60208210811415611548576115476115c6565b5b50919050565b6000611559826114d0565b91507fffffffffffffffffffffffffffffffffffffffffffffffffffffffffffffffff82141561158c5761158b611597565b5b600182019050919050565b7f4e487b7100000000000000000000000000000000000000000000000000000000600052601160045260246000fd5b7f4e487b7100000000000000000000000000000000000000000000000000000000600052602260045260246000fd5b7f4e487b7100000000000000000000000000000000000000000000000000000000600052604160045260246000fd5b6000601f19601f8301169050919050565b61163e816114d0565b811461164957600080fd5b5056fea264697066735822122028957ebf6f1a71c8f9f7c6033b88417d7abe43fba2c7389a20de2e0e919afdce64736f6c63430008000033",
  "immutableReferences": {},
  "source": "// SPDX-License-Identifier: MIT\r\npragma solidity ^0.8.0;\r\n\r\ncontract AgriJobs {\r\n    struct Job {\r\n        uint id;\r\n        address farmer;\r\n        string title;\r\n        string description;\r\n        string location;\r\n        string contactNumber;\r\n        uint256 wage;\r\n        bool isAvailable;\r\n    }\r\n\r\n    uint public jobCount = 0;\r\n    mapping(uint => Job) public jobs;\r\n\r\n    event JobPosted(\r\n        uint id,\r\n        address farmer,\r\n        string title,\r\n        string description,\r\n        string location,\r\n        string contactNumber,\r\n        uint256 wage,\r\n        bool isAvailable\r\n    );\r\n\r\n    function postJob(\r\n        string memory _title,\r\n        string memory _description,\r\n        string memory _location,\r\n        string memory _contactNumber,\r\n        uint256 _wage\r\n    ) public {\r\n        jobCount++;\r\n        jobs[jobCount] = Job(jobCount, msg.sender, _title, _description, _location, _contactNumber, _wage, true);\r\n        emit JobPosted(jobCount, msg.sender, _title, _description, _location, _contactNumber, _wage, true);\r\n    }\r\n\r\n    function fetchJob(uint _jobId) public view returns (\r\n        uint, address, string memory, string memory, string memory, string memory, uint256, bool\r\n    ) {\r\n        Job memory job = jobs[_jobId];\r\n        return (job.id, job.farmer, job.title, job.description, job.location, job.contactNumber, job.wage, job.isAvailable);\r\n    }\r\n\r\n    function fetchJobs() public view returns (Job[] memory) {\r\n        Job[] memory jobArray = new Job[](jobCount);\r\n        for (uint i = 1; i <= jobCount; i++) {\r\n            jobArray[i - 1] = jobs[i];\r\n        }\r\n        return jobArray;\r\n    }\r\n\r\n    function markJobAsUnavailable(uint _jobId) public {\r\n        require(jobs[_jobId].farmer == msg.sender, \"Only the farmer who posted the job can mark it as unavailable.\");\r\n        jobs[_jobId].isAvailable = false;\r\n    }\r\n}\r\n",
  "sourcePath": "D:\\New Volume D\\Mini-Project\\agrichain-backend\\contracts\\AgriJobs.sol",
  "compiler": {
    "name": "solc",
    "version": "0.8.0+commit.c7dfd78e.Emscripten.clang"
  },
  "schemaVersion": "3.4.16",
  "updatedAt": "2024-07-29T13:21:13.461Z",
  "networkType": "ethereum",
  "devdoc": {
    "kind": "dev",
    "methods": {},
    "version": 1
  },
  "userdoc": {
    "kind": "user",
    "methods": {},
    "version": 1
  }
}