{
  "contractName": "AgriChain",
  "abi": [
    {
      "anonymous": false,
      "inputs": [
        {
          "indexed": false,
          "internalType": "address",
          "name": "userAddress",
          "type": "address"
        },
        {
          "indexed": false,
          "internalType": "string",
          "name": "username",
          "type": "string"
        },
        {
          "indexed": false,
          "internalType": "string",
          "name": "email",
          "type": "string"
        },
        {
          "indexed": false,
          "internalType": "string",
          "name": "category",
          "type": "string"
        }
      ],
      "name": "UserSignedUp",
      "type": "event"
    },
    {
      "inputs": [
        {
          "internalType": "address",
          "name": "",
          "type": "address"
        }
      ],
      "name": "users",
      "outputs": [
        {
          "internalType": "string",
          "name": "username",
          "type": "string"
        },
        {
          "internalType": "string",
          "name": "email",
          "type": "string"
        },
        {
          "internalType": "string",
          "name": "password",
          "type": "string"
        },
        {
          "internalType": "string",
          "name": "category",
          "type": "string"
        },
        {
          "internalType": "bool",
          "name": "exists",
          "type": "bool"
        }
      ],
      "stateMutability": "view",
      "type": "function",
      "constant": true
    },
    {
      "inputs": [
        {
          "internalType": "string",
          "name": "_username",
          "type": "string"
        },
        {
          "internalType": "string",
          "name": "_email",
          "type": "string"
        },
        {
          "internalType": "string",
          "name": "_password",
          "type": "string"
        },
        {
          "internalType": "string",
          "name": "_category",
          "type": "string"
        }
      ],
      "name": "signUp",
      "outputs": [],
      "stateMutability": "nonpayable",
      "type": "function"
    },
    {
      "inputs": [
        {
          "internalType": "string",
          "name": "_email",
          "type": "string"
        },
        {
          "internalType": "string",
          "name": "_password",
          "type": "string"
        }
      ],
      "name": "login",
      "outputs": [
        {
          "internalType": "bool",
          "name": "",
          "type": "bool"
        }
      ],
      "stateMutability": "view",
      "type": "function",
      "constant": true
    }
  ],
  "bytecode": "0x608060405234801561001057600080fd5b50610f57806100206000396000f3fe608060405234801561001057600080fd5b50600436106100415760003560e01c806358467dbc14610046578063589218f114610076578063a87430ba14610092575b600080fd5b610060600480360381019061005b91906109ef565b6100c6565b60405161006d9190610c97565b60405180910390f35b610090600480360381019061008b9190610a5b565b610472565b005b6100ac60048036038101906100a791906109c6565b610643565b6040516100bd959493929190610cb2565b60405180910390f35b6000806000803373ffffffffffffffffffffffffffffffffffffffff1673ffffffffffffffffffffffffffffffffffffffff1681526020019081526020016000206040518060a001604052908160008201805461012290610e69565b80601f016020809104026020016040519081016040528092919081815260200182805461014e90610e69565b801561019b5780601f106101705761010080835404028352916020019161019b565b820191906000526020600020905b81548152906001019060200180831161017e57829003601f168201915b505050505081526020016001820180546101b490610e69565b80601f01602080910402602001604051908101604052809291908181526020018280546101e090610e69565b801561022d5780601f106102025761010080835404028352916020019161022d565b820191906000526020600020905b81548152906001019060200180831161021057829003601f168201915b5050505050815260200160028201805461024690610e69565b80601f016020809104026020016040519081016040528092919081815260200182805461027290610e69565b80156102bf5780601f10610294576101008083540402835291602001916102bf565b820191906000526020600020905b8154815290600101906020018083116102a257829003601f168201915b505050505081526020016003820180546102d890610e69565b80601f016020809104026020016040519081016040528092919081815260200182805461030490610e69565b80156103515780601f1061032657610100808354040283529160200191610351565b820191906000526020600020905b81548152906001019060200180831161033457829003601f168201915b505050505081526020016004820160009054906101000a900460ff161515151581525050905080608001516103bb576040517f08c379a00000000000000000000000000000000000000000000000000000000081526004016103b290610d21565b60405180910390fd5b836040516020016103cc9190610c26565b6040516020818303038152906040528051906020012081602001516040516020016103f79190610c26565b604051602081830303815290604052805190602001201480156104695750826040516020016104269190610c26565b6040516020818303038152906040528051906020012081604001516040516020016104519190610c26565b60405160208183030381529060405280519060200120145b91505092915050565b6000803373ffffffffffffffffffffffffffffffffffffffff1673ffffffffffffffffffffffffffffffffffffffff16815260200190815260200160002060040160009054906101000a900460ff1615610501576040517f08c379a00000000000000000000000000000000000000000000000000000000081526004016104f890610d41565b60405180910390fd5b6040518060a00160405280858152602001848152602001838152602001828152602001600115158152506000803373ffffffffffffffffffffffffffffffffffffffff1673ffffffffffffffffffffffffffffffffffffffff16815260200190815260200160002060008201518160000190805190602001906105859291906108a6565b5060208201518160010190805190602001906105a29291906108a6565b5060408201518160020190805190602001906105bf9291906108a6565b5060608201518160030190805190602001906105dc9291906108a6565b5060808201518160040160006101000a81548160ff0219169083151502179055509050507f33bd7ffb115cff1ceca6095a261a46205a97302c8dfcc39807568f279b01d83a338585846040516106359493929190610c3d565b60405180910390a150505050565b600060205280600052604060002060009150905080600001805461066690610e69565b80601f016020809104026020016040519081016040528092919081815260200182805461069290610e69565b80156106df5780601f106106b4576101008083540402835291602001916106df565b820191906000526020600020905b8154815290600101906020018083116106c257829003601f168201915b5050505050908060010180546106f490610e69565b80601f016020809104026020016040519081016040528092919081815260200182805461072090610e69565b801561076d5780601f106107425761010080835404028352916020019161076d565b820191906000526020600020905b81548152906001019060200180831161075057829003601f168201915b50505050509080600201805461078290610e69565b80601f01602080910402602001604051908101604052809291908181526020018280546107ae90610e69565b80156107fb5780601f106107d0576101008083540402835291602001916107fb565b820191906000526020600020905b8154815290600101906020018083116107de57829003601f168201915b50505050509080600301805461081090610e69565b80601f016020809104026020016040519081016040528092919081815260200182805461083c90610e69565b80156108895780601f1061085e57610100808354040283529160200191610889565b820191906000526020600020905b81548152906001019060200180831161086c57829003601f168201915b5050505050908060040160009054906101000a900460ff16905085565b8280546108b290610e69565b90600052602060002090601f0160209004810192826108d4576000855561091b565b82601f106108ed57805160ff191683800117855561091b565b8280016001018555821561091b579182015b8281111561091a5782518255916020019190600101906108ff565b5b509050610928919061092c565b5090565b5b8082111561094557600081600090555060010161092d565b5090565b600061095c61095784610d92565b610d61565b90508281526020810184848401111561097457600080fd5b61097f848285610e27565b509392505050565b60008135905061099681610f0a565b92915050565b600082601f8301126109ad57600080fd5b81356109bd848260208601610949565b91505092915050565b6000602082840312156109d857600080fd5b60006109e684828501610987565b91505092915050565b60008060408385031215610a0257600080fd5b600083013567ffffffffffffffff811115610a1c57600080fd5b610a288582860161099c565b925050602083013567ffffffffffffffff811115610a4557600080fd5b610a518582860161099c565b9150509250929050565b60008060008060808587031215610a7157600080fd5b600085013567ffffffffffffffff811115610a8b57600080fd5b610a978782880161099c565b945050602085013567ffffffffffffffff811115610ab457600080fd5b610ac08782880161099c565b935050604085013567ffffffffffffffff811115610add57600080fd5b610ae98782880161099c565b925050606085013567ffffffffffffffff811115610b0657600080fd5b610b128782880161099c565b91505092959194509250565b610b2781610de9565b82525050565b610b3681610dfb565b82525050565b6000610b4782610dc2565b610b518185610dcd565b9350610b61818560208601610e36565b610b6a81610ef9565b840191505092915050565b6000610b8082610dc2565b610b8a8185610dde565b9350610b9a818560208601610e36565b80840191505092915050565b6000610bb3601483610dcd565b91507f5573657220646f6573206e6f742065786973742e0000000000000000000000006000830152602082019050919050565b6000610bf3601483610dcd565b91507f5573657220616c7265616479206578697374732e0000000000000000000000006000830152602082019050919050565b6000610c328284610b75565b915081905092915050565b6000608082019050610c526000830187610b1e565b8181036020830152610c648186610b3c565b90508181036040830152610c788185610b3c565b90508181036060830152610c8c8184610b3c565b905095945050505050565b6000602082019050610cac6000830184610b2d565b92915050565b600060a0820190508181036000830152610ccc8188610b3c565b90508181036020830152610ce08187610b3c565b90508181036040830152610cf48186610b3c565b90508181036060830152610d088185610b3c565b9050610d176080830184610b2d565b9695505050505050565b60006020820190508181036000830152610d3a81610ba6565b9050919050565b60006020820190508181036000830152610d5a81610be6565b9050919050565b6000604051905081810181811067ffffffffffffffff82111715610d8857610d87610eca565b5b8060405250919050565b600067ffffffffffffffff821115610dad57610dac610eca565b5b601f19601f8301169050602081019050919050565b600081519050919050565b600082825260208201905092915050565b600081905092915050565b6000610df482610e07565b9050919050565b60008115159050919050565b600073ffffffffffffffffffffffffffffffffffffffff82169050919050565b82818337600083830152505050565b60005b83811015610e54578082015181840152602081019050610e39565b83811115610e63576000848401525b50505050565b60006002820490506001821680610e8157607f821691505b60208210811415610e9557610e94610e9b565b5b50919050565b7f4e487b7100000000000000000000000000000000000000000000000000000000600052602260045260246000fd5b7f4e487b7100000000000000000000000000000000000000000000000000000000600052604160045260246000fd5b6000601f19601f8301169050919050565b610f1381610de9565b8114610f1e57600080fd5b5056fea2646970667358221220216db9e148a22833f0528b58edb7ba32d45f112462ba008d59f6d036fc70954364736f6c63430008000033",
  "immutableReferences": {},
  "source": "// SPDX-License-Identifier: MIT\r\npragma solidity ^0.8.0;\r\n\r\ncontract AgriChain {\r\n    struct User {\r\n        string username;\r\n        string email;\r\n        string password;\r\n        string category;\r\n        bool exists;\r\n    }\r\n\r\n    mapping(address => User) public users;\r\n\r\n    event UserSignedUp(address userAddress, string username, string email, string category);\r\n\r\n    function signUp(string memory _username, string memory _email, string memory _password, string memory _category) public {\r\n        require(!users[msg.sender].exists, \"User already exists.\");\r\n        users[msg.sender] = User(_username, _email, _password, _category, true);\r\n        emit UserSignedUp(msg.sender, _username, _email, _category);\r\n    }\r\n\r\n    function login(string memory _email, string memory _password) public view returns (bool) {\r\n        User memory user = users[msg.sender];\r\n        require(user.exists, \"User does not exist.\");\r\n        return (keccak256(abi.encodePacked(user.email)) == keccak256(abi.encodePacked(_email)) && \r\n                keccak256(abi.encodePacked(user.password)) == keccak256(abi.encodePacked(_password)));\r\n    }\r\n}\r\n",
  "sourcePath": "D:\\New Volume D\\Mini-Project\\agrichain-backend\\contracts\\AgriChain.sol",
  "compiler": {
    "name": "solc",
    "version": "0.8.0+commit.c7dfd78e.Emscripten.clang"
  },
  "schemaVersion": "3.4.16",
  "updatedAt": "2024-07-29T13:21:13.475Z",
  "networkType": "ethereum",
  "devdoc": {
    "kind": "dev",
    "methods": {},
    "version": 1
  },
  "userdoc": {
    "kind": "user",
    "methods": {},
    "version": 1
  }
}