{
  "contractName": "Farmer",
  "abi": [
    {
      "anonymous": false,
      "inputs": [
        {
          "indexed": false,
          "internalType": "address",
          "name": "farmerAddress",
          "type": "address"
        },
        {
          "indexed": false,
          "internalType": "uint256",
          "name": "amount",
          "type": "uint256"
        }
      ],
      "name": "BalanceAdded",
      "type": "event"
    },
    {
      "anonymous": false,
      "inputs": [
        {
          "indexed": false,
          "internalType": "address",
          "name": "farmerAddress",
          "type": "address"
        },
        {
          "indexed": false,
          "internalType": "uint256",
          "name": "amount",
          "type": "uint256"
        }
      ],
      "name": "BalanceWithdrawn",
      "type": "event"
    },
    {
      "anonymous": false,
      "inputs": [
        {
          "indexed": false,
          "internalType": "address",
          "name": "farmerAddress",
          "type": "address"
        },
        {
          "indexed": false,
          "internalType": "string",
          "name": "name",
          "type": "string"
        },
        {
          "indexed": false,
          "internalType": "string",
          "name": "location",
          "type": "string"
        }
      ],
      "name": "FarmerRegistered",
      "type": "event"
    },
    {
      "inputs": [
        {
          "internalType": "address",
          "name": "",
          "type": "address"
        }
      ],
      "name": "balances",
      "outputs": [
        {
          "internalType": "uint256",
          "name": "",
          "type": "uint256"
        }
      ],
      "stateMutability": "view",
      "type": "function",
      "constant": true
    },
    {
      "inputs": [
        {
          "internalType": "address",
          "name": "",
          "type": "address"
        }
      ],
      "name": "farmers",
      "outputs": [
        {
          "internalType": "string",
          "name": "name",
          "type": "string"
        },
        {
          "internalType": "string",
          "name": "location",
          "type": "string"
        },
        {
          "internalType": "bool",
          "name": "isRegistered",
          "type": "bool"
        }
      ],
      "stateMutability": "view",
      "type": "function",
      "constant": true
    },
    {
      "inputs": [
        {
          "internalType": "string",
          "name": "_name",
          "type": "string"
        },
        {
          "internalType": "string",
          "name": "_location",
          "type": "string"
        },
        {
          "internalType": "string[]",
          "name": "_products",
          "type": "string[]"
        }
      ],
      "name": "registerFarmer",
      "outputs": [],
      "stateMutability": "nonpayable",
      "type": "function"
    },
    {
      "inputs": [
        {
          "internalType": "address",
          "name": "_farmerAddress",
          "type": "address"
        }
      ],
      "name": "getFarmer",
      "outputs": [
        {
          "components": [
            {
              "internalType": "string",
              "name": "name",
              "type": "string"
            },
            {
              "internalType": "string",
              "name": "location",
              "type": "string"
            },
            {
              "internalType": "string[]",
              "name": "products",
              "type": "string[]"
            },
            {
              "internalType": "bool",
              "name": "isRegistered",
              "type": "bool"
            }
          ],
          "internalType": "struct Farmer.FarmerDetails",
          "name": "",
          "type": "tuple"
        }
      ],
      "stateMutability": "view",
      "type": "function",
      "constant": true
    },
    {
      "inputs": [
        {
          "internalType": "address",
          "name": "_farmer",
          "type": "address"
        },
        {
          "internalType": "uint256",
          "name": "_amount",
          "type": "uint256"
        }
      ],
      "name": "addBalance",
      "outputs": [],
      "stateMutability": "nonpayable",
      "type": "function"
    },
    {
      "inputs": [],
      "name": "withdrawBalance",
      "outputs": [],
      "stateMutability": "nonpayable",
      "type": "function"
    }
  ],
  "bytecode": "0x608060405234801561001057600080fd5b506115b2806100206000396000f3fe608060405234801561001057600080fd5b50600436106100625760003560e01c806321e5383a1461006757806327e235e31461008357806330dd2afa146100b3578063401b2168146100cf5780635fd8c71014610101578063e7609c161461010b575b600080fd5b610081600480360381019061007c9190610d14565b61013b565b005b61009d60048036038101906100989190610ceb565b61025c565b6040516100aa9190611290565b60405180910390f35b6100cd60048036038101906100c89190610d50565b610274565b005b6100e960048036038101906100e49190610ceb565b61041f565b6040516100f893929190611189565b60405180910390f35b610109610566565b005b61012560048036038101906101209190610ceb565b610743565b604051610132919061126e565b60405180910390f35b6000808373ffffffffffffffffffffffffffffffffffffffff1673ffffffffffffffffffffffffffffffffffffffff16815260200190815260200160002060030160009054906101000a900460ff166101c9576040517f08c379a00000000000000000000000000000000000000000000000000000000081526004016101c09061122e565b60405180910390fd5b80600160008473ffffffffffffffffffffffffffffffffffffffff1673ffffffffffffffffffffffffffffffffffffffff1681526020019081526020016000206000828254610218919061139e565b925050819055507fe96dd7a15a3974e8e7d5eb80de2cb6fd69907a1ee089170cd976cfffaedfa8ac8282604051610250929190611160565b60405180910390a15050565b60016020528060005260406000206000915090505481565b6000803373ffffffffffffffffffffffffffffffffffffffff1673ffffffffffffffffffffffffffffffffffffffff16815260200190815260200160002060030160009054906101000a900460ff1615610303576040517f08c379a00000000000000000000000000000000000000000000000000000000081526004016102fa906111ce565b60405180910390fd5b6040518060800160405280848152602001838152602001828152602001600115158152506000803373ffffffffffffffffffffffffffffffffffffffff1673ffffffffffffffffffffffffffffffffffffffff1681526020019081526020016000206000820151816000019080519060200190610381929190610a41565b50602082015181600101908051906020019061039e929190610a41565b5060408201518160020190805190602001906103bb929190610ac7565b5060608201518160030160006101000a81548160ff0219169083151502179055509050507f851322da2e414e9965ce5ecef6890861b23f27fe84bd9646b7de8aea70efcb563384846040516104129392919061111b565b60405180910390a1505050565b60006020528060005260406000206000915090508060000180546104429061147e565b80601f016020809104026020016040519081016040528092919081815260200182805461046e9061147e565b80156104bb5780601f10610490576101008083540402835291602001916104bb565b820191906000526020600020905b81548152906001019060200180831161049e57829003601f168201915b5050505050908060010180546104d09061147e565b80601f01602080910402602001604051908101604052809291908181526020018280546104fc9061147e565b80156105495780601f1061051e57610100808354040283529160200191610549565b820191906000526020600020905b81548152906001019060200180831161052c57829003601f168201915b5050505050908060030160009054906101000a900460ff16905083565b6000803373ffffffffffffffffffffffffffffffffffffffff1673ffffffffffffffffffffffffffffffffffffffff16815260200190815260200160002060030160009054906101000a900460ff166105f4576040517f08c379a00000000000000000000000000000000000000000000000000000000081526004016105eb9061124e565b60405180910390fd5b6000600160003373ffffffffffffffffffffffffffffffffffffffff1673ffffffffffffffffffffffffffffffffffffffff1681526020019081526020016000205490506000811161067b576040517f08c379a00000000000000000000000000000000000000000000000000000000081526004016106729061120e565b60405180910390fd5b6000600160003373ffffffffffffffffffffffffffffffffffffffff1673ffffffffffffffffffffffffffffffffffffffff168152602001908152602001600020819055503373ffffffffffffffffffffffffffffffffffffffff166108fc829081150290604051600060405180830381858888f19350505050158015610706573d6000803e3d6000fd5b507fddc398b321237a8d40ac914388309c2f52a08c134e4dc4ce61e32f57cb7d80f13382604051610738929190611160565b60405180910390a150565b61074b610b27565b6000808373ffffffffffffffffffffffffffffffffffffffff1673ffffffffffffffffffffffffffffffffffffffff16815260200190815260200160002060030160009054906101000a900460ff166107d9576040517f08c379a00000000000000000000000000000000000000000000000000000000081526004016107d0906111ee565b60405180910390fd5b6000808373ffffffffffffffffffffffffffffffffffffffff1673ffffffffffffffffffffffffffffffffffffffff1681526020019081526020016000206040518060800160405290816000820180546108329061147e565b80601f016020809104026020016040519081016040528092919081815260200182805461085e9061147e565b80156108ab5780601f10610880576101008083540402835291602001916108ab565b820191906000526020600020905b81548152906001019060200180831161088e57829003601f168201915b505050505081526020016001820180546108c49061147e565b80601f01602080910402602001604051908101604052809291908181526020018280546108f09061147e565b801561093d5780601f106109125761010080835404028352916020019161093d565b820191906000526020600020905b81548152906001019060200180831161092057829003601f168201915b5050505050815260200160028201805480602002602001604051908101604052809291908181526020016000905b82821015610a1757838290600052602060002001805461098a9061147e565b80601f01602080910402602001604051908101604052809291908181526020018280546109b69061147e565b8015610a035780601f106109d857610100808354040283529160200191610a03565b820191906000526020600020905b8154815290600101906020018083116109e657829003601f168201915b50505050508152602001906001019061096b565b5050505081526020016003820160009054906101000a900460ff1615151515815250509050919050565b828054610a4d9061147e565b90600052602060002090601f016020900481019282610a6f5760008555610ab6565b82601f10610a8857805160ff1916838001178555610ab6565b82800160010185558215610ab6579182015b82811115610ab5578251825591602001919060010190610a9a565b5b509050610ac39190610b51565b5090565b828054828255906000526020600020908101928215610b16579160200282015b82811115610b15578251829080519060200190610b05929190610a41565b5091602001919060010190610ae7565b5b509050610b239190610b6e565b5090565b60405180608001604052806060815260200160608152602001606081526020016000151581525090565b5b80821115610b6a576000816000905550600101610b52565b5090565b5b80821115610b8e5760008181610b859190610b92565b50600101610b6f565b5090565b508054610b9e9061147e565b6000825580601f10610bb05750610bcf565b601f016020900490600052602060002090810190610bce9190610b51565b5b50565b6000610be5610be0846112dc565b6112ab565b9050808382526020820190508260005b85811015610c255781358501610c0b8882610cac565b845260208401935060208301925050600181019050610bf5565b5050509392505050565b6000610c42610c3d84611308565b6112ab565b905082815260208101848484011115610c5a57600080fd5b610c6584828561143c565b509392505050565b600081359050610c7c8161154e565b92915050565b600082601f830112610c9357600080fd5b8135610ca3848260208601610bd2565b91505092915050565b600082601f830112610cbd57600080fd5b8135610ccd848260208601610c2f565b91505092915050565b600081359050610ce581611565565b92915050565b600060208284031215610cfd57600080fd5b6000610d0b84828501610c6d565b91505092915050565b60008060408385031215610d2757600080fd5b6000610d3585828601610c6d565b9250506020610d4685828601610cd6565b9150509250929050565b600080600060608486031215610d6557600080fd5b600084013567ffffffffffffffff811115610d7f57600080fd5b610d8b86828701610cac565b935050602084013567ffffffffffffffff811115610da857600080fd5b610db486828701610cac565b925050604084013567ffffffffffffffff811115610dd157600080fd5b610ddd86828701610c82565b9150509250925092565b6000610df38383610e9d565b905092915050565b610e04816113f4565b82525050565b6000610e1582611348565b610e1f818561136b565b935083602082028501610e3185611338565b8060005b85811015610e6d5784840389528151610e4e8582610de7565b9450610e598361135e565b925060208a01995050600181019050610e35565b50829750879550505050505092915050565b610e8881611406565b82525050565b610e9781611406565b82525050565b6000610ea882611353565b610eb2818561137c565b9350610ec281856020860161144b565b610ecb8161153d565b840191505092915050565b6000610ee182611353565b610eeb818561138d565b9350610efb81856020860161144b565b610f048161153d565b840191505092915050565b6000610f1c60198361138d565b91507f4661726d657220616c72656164792072656769737465726564000000000000006000830152602082019050919050565b6000610f5c60158361138d565b91507f4661726d6572206e6f74207265676973746572656400000000000000000000006000830152602082019050919050565b6000610f9c60168361138d565b91507f4e6f2062616c616e636520746f207769746864726177000000000000000000006000830152602082019050919050565b6000610fdc602b8361138d565b91507f43616e206f6e6c79206164642062616c616e636520666f72207265676973746560008301527f726564206661726d6572730000000000000000000000000000000000000000006020830152604082019050919050565b6000611042602f8361138d565b91507f4f6e6c792072656769737465726564206661726d6572732063616e207065726660008301527f6f726d207468697320616374696f6e00000000000000000000000000000000006020830152604082019050919050565b600060808301600083015184820360008601526110b88282610e9d565b915050602083015184820360208601526110d28282610e9d565b915050604083015184820360408601526110ec8282610e0a565b91505060608301516111016060860182610e7f565b508091505092915050565b61111581611432565b82525050565b60006060820190506111306000830186610dfb565b81810360208301526111428185610ed6565b905081810360408301526111568184610ed6565b9050949350505050565b60006040820190506111756000830185610dfb565b611182602083018461110c565b9392505050565b600060608201905081810360008301526111a38186610ed6565b905081810360208301526111b78185610ed6565b90506111c66040830184610e8e565b949350505050565b600060208201905081810360008301526111e781610f0f565b9050919050565b6000602082019050818103600083015261120781610f4f565b9050919050565b6000602082019050818103600083015261122781610f8f565b9050919050565b6000602082019050818103600083015261124781610fcf565b9050919050565b6000602082019050818103600083015261126781611035565b9050919050565b60006020820190508181036000830152611288818461109b565b905092915050565b60006020820190506112a5600083018461110c565b92915050565b6000604051905081810181811067ffffffffffffffff821117156112d2576112d161150e565b5b8060405250919050565b600067ffffffffffffffff8211156112f7576112f661150e565b5b602082029050602081019050919050565b600067ffffffffffffffff8211156113235761132261150e565b5b601f19601f8301169050602081019050919050565b6000819050602082019050919050565b600081519050919050565b600081519050919050565b6000602082019050919050565b600082825260208201905092915050565b600082825260208201905092915050565b600082825260208201905092915050565b60006113a982611432565b91506113b483611432565b9250827fffffffffffffffffffffffffffffffffffffffffffffffffffffffffffffffff038211156113e9576113e86114b0565b5b828201905092915050565b60006113ff82611412565b9050919050565b60008115159050919050565b600073ffffffffffffffffffffffffffffffffffffffff82169050919050565b6000819050919050565b82818337600083830152505050565b60005b8381101561146957808201518184015260208101905061144e565b83811115611478576000848401525b50505050565b6000600282049050600182168061149657607f821691505b602082108114156114aa576114a96114df565b5b50919050565b7f4e487b7100000000000000000000000000000000000000000000000000000000600052601160045260246000fd5b7f4e487b7100000000000000000000000000000000000000000000000000000000600052602260045260246000fd5b7f4e487b7100000000000000000000000000000000000000000000000000000000600052604160045260246000fd5b6000601f19601f8301169050919050565b611557816113f4565b811461156257600080fd5b50565b61156e81611432565b811461157957600080fd5b5056fea2646970667358221220fb51754535331cfbc74a1f3b40d83e372b424f92fe67852cdaab3ad4536f3c3064736f6c63430008000033",
  "immutableReferences": {},
  "source": "// SPDX-License-Identifier: MIT\r\npragma solidity ^0.8.0;\r\n\r\ncontract Farmer {\r\n    struct FarmerDetails {\r\n        string name;\r\n        string location;\r\n        string[] products;\r\n        bool isRegistered;\r\n    }\r\n\r\n    mapping(address => FarmerDetails) public farmers;\r\n    mapping(address => uint256) public balances;\r\n\r\n    event FarmerRegistered(address farmerAddress, string name, string location);\r\n    event BalanceAdded(address farmerAddress, uint256 amount);\r\n    event BalanceWithdrawn(address farmerAddress, uint256 amount);\r\n\r\n    modifier onlyRegisteredFarmer() {\r\n        require(farmers[msg.sender].isRegistered, \"Only registered farmers can perform this action\");\r\n        _;\r\n    }\r\n\r\n    function registerFarmer(string memory _name, string memory _location, string[] memory _products) public {\r\n        require(!farmers[msg.sender].isRegistered, \"Farmer already registered\");\r\n        \r\n        farmers[msg.sender] = FarmerDetails({\r\n            name: _name,\r\n            location: _location,\r\n            products: _products,\r\n            isRegistered: true\r\n        });\r\n        \r\n        emit FarmerRegistered(msg.sender, _name, _location);\r\n    }\r\n\r\n    function getFarmer(address _farmerAddress) public view returns (FarmerDetails memory) {\r\n        require(farmers[_farmerAddress].isRegistered, \"Farmer not registered\");\r\n        return farmers[_farmerAddress];\r\n    }\r\n\r\n    function addBalance(address _farmer, uint256 _amount) external {\r\n        require(farmers[_farmer].isRegistered, \"Can only add balance for registered farmers\");\r\n        balances[_farmer] += _amount;\r\n        emit BalanceAdded(_farmer, _amount);\r\n    }\r\n\r\n    function withdrawBalance() public onlyRegisteredFarmer {\r\n        uint256 amount = balances[msg.sender];\r\n        require(amount > 0, \"No balance to withdraw\");\r\n        balances[msg.sender] = 0;\r\n        payable(msg.sender).transfer(amount);\r\n        emit BalanceWithdrawn(msg.sender, amount);\r\n    }\r\n}\r\n\r\n\r\n\r\n\r\n",
  "sourcePath": "D:\\New Volume D\\Mini-Project\\agrichain-backend\\contracts\\Farmer.sol",
  "compiler": {
    "name": "solc",
    "version": "0.8.0+commit.c7dfd78e.Emscripten.clang"
  },
  "schemaVersion": "3.4.16",
  "updatedAt": "2024-07-29T13:21:13.445Z",
  "networkType": "ethereum",
  "devdoc": {
    "kind": "dev",
    "methods": {},
    "version": 1
  },
  "userdoc": {
    "kind": "user",
    "methods": {},
    "version": 1
  }
}