{
  "contractName": "LaborManagement",
  "abi": [
    {
      "anonymous": false,
      "inputs": [
        {
          "indexed": false,
          "internalType": "uint256",
          "name": "laborId",
          "type": "uint256"
        },
        {
          "indexed": false,
          "internalType": "string",
          "name": "name",
          "type": "string"
        },
        {
          "indexed": false,
          "internalType": "string",
          "name": "laborAddress",
          "type": "string"
        },
        {
          "indexed": false,
          "internalType": "string",
          "name": "phone",
          "type": "string"
        }
      ],
      "name": "LaborAdded",
      "type": "event"
    },
    {
      "anonymous": false,
      "inputs": [
        {
          "indexed": false,
          "internalType": "uint256",
          "name": "laborId",
          "type": "uint256"
        }
      ],
      "name": "LaborMarkedAsUnavailable",
      "type": "event"
    },
    {
      "inputs": [],
      "name": "laborCount",
      "outputs": [
        {
          "internalType": "uint256",
          "name": "",
          "type": "uint256"
        }
      ],
      "stateMutability": "view",
      "type": "function",
      "constant": true
    },
    {
      "inputs": [
        {
          "internalType": "uint256",
          "name": "",
          "type": "uint256"
        }
      ],
      "name": "labors",
      "outputs": [
        {
          "internalType": "uint256",
          "name": "id",
          "type": "uint256"
        },
        {
          "internalType": "string",
          "name": "name",
          "type": "string"
        },
        {
          "internalType": "string",
          "name": "laborAddress",
          "type": "string"
        },
        {
          "internalType": "string",
          "name": "phone",
          "type": "string"
        },
        {
          "internalType": "address",
          "name": "laborOwner",
          "type": "address"
        },
        {
          "internalType": "bool",
          "name": "isAvailable",
          "type": "bool"
        }
      ],
      "stateMutability": "view",
      "type": "function",
      "constant": true
    },
    {
      "inputs": [
        {
          "internalType": "string",
          "name": "_name",
          "type": "string"
        },
        {
          "internalType": "string",
          "name": "_laborAddress",
          "type": "string"
        },
        {
          "internalType": "string",
          "name": "_phone",
          "type": "string"
        },
        {
          "internalType": "string[]",
          "name": "_skillNames",
          "type": "string[]"
        },
        {
          "internalType": "uint8[]",
          "name": "_ratings",
          "type": "uint8[]"
        }
      ],
      "name": "addLabor",
      "outputs": [],
      "stateMutability": "nonpayable",
      "type": "function"
    },
    {
      "inputs": [
        {
          "internalType": "uint256",
          "name": "_laborId",
          "type": "uint256"
        }
      ],
      "name": "getLabor",
      "outputs": [
        {
          "internalType": "uint256",
          "name": "id",
          "type": "uint256"
        },
        {
          "internalType": "string",
          "name": "name",
          "type": "string"
        },
        {
          "internalType": "string",
          "name": "laborAddress",
          "type": "string"
        },
        {
          "internalType": "string",
          "name": "phone",
          "type": "string"
        },
        {
          "internalType": "address",
          "name": "laborOwner",
          "type": "address"
        },
        {
          "internalType": "bool",
          "name": "isAvailable",
          "type": "bool"
        },
        {
          "internalType": "string[]",
          "name": "skillNames",
          "type": "string[]"
        },
        {
          "internalType": "uint8[]",
          "name": "ratings",
          "type": "uint8[]"
        }
      ],
      "stateMutability": "view",
      "type": "function",
      "constant": true
    },
    {
      "inputs": [],
      "name": "fetchLabors",
      "outputs": [
        {
          "components": [
            {
              "internalType": "uint256",
              "name": "id",
              "type": "uint256"
            },
            {
              "internalType": "string",
              "name": "name",
              "type": "string"
            },
            {
              "internalType": "string",
              "name": "laborAddress",
              "type": "string"
            },
            {
              "internalType": "string",
              "name": "phone",
              "type": "string"
            },
            {
              "internalType": "address",
              "name": "laborOwner",
              "type": "address"
            },
            {
              "internalType": "bool",
              "name": "isAvailable",
              "type": "bool"
            },
            {
              "components": [
                {
                  "internalType": "string",
                  "name": "skillName",
                  "type": "string"
                },
                {
                  "internalType": "uint8",
                  "name": "rating",
                  "type": "uint8"
                }
              ],
              "internalType": "struct LaborManagement.Skill[]",
              "name": "skills",
              "type": "tuple[]"
            }
          ],
          "internalType": "struct LaborManagement.Labor[]",
          "name": "",
          "type": "tuple[]"
        }
      ],
      "stateMutability": "view",
      "type": "function",
      "constant": true
    },
    {
      "inputs": [
        {
          "internalType": "uint256",
          "name": "_laborId",
          "type": "uint256"
        }
      ],
      "name": "markLaborAsUnavailable",
      "outputs": [],
      "stateMutability": "nonpayable",
      "type": "function"
    }
  ],
  "bytecode": "0x60806040526000805534801561001457600080fd5b50611eb1806100246000396000f3fe608060405234801561001057600080fd5b50600436106100625760003560e01c8063194fb596146100675780632b5d3213146100835780635bdb700f146100ba578063acc3d8fc146100d8578063b649cbea146100f6578063bba4bf9a14610112575b600080fd5b610081600480360381019061007c91906113e2565b610147565b005b61009d600480360381019061009891906113e2565b610254565b6040516100b19897969594939291906119fe565b60405180910390f35b6100c2610757565b6040516100cf91906118b1565b60405180910390f35b6100e0610bb0565b6040516100ed9190611913565b60405180910390f35b610110600480360381019061010b91906112f3565b610bb6565b005b61012c600480360381019061012791906113e2565b610e4b565b60405161013e96959493929190611988565b60405180910390f35b3373ffffffffffffffffffffffffffffffffffffffff166001600083815260200190815260200160002060040160009054906101000a900473ffffffffffffffffffffffffffffffffffffffff1673ffffffffffffffffffffffffffffffffffffffff16146101eb576040517f08c379a00000000000000000000000000000000000000000000000000000000081526004016101e2906118d3565b60405180910390fd5b60006001600083815260200190815260200160002060040160146101000a81548160ff0219169083151502179055507f141729ad3b9e8ffa5124c2c204449856c450517f816357191ac8dd329b3ed03f816040516102499190611913565b60405180910390a150565b600060608060606000806060806000600160008b815260200190815260200160002090506000816005018054905090508067ffffffffffffffff8111156102c4577f4e487b7100000000000000000000000000000000000000000000000000000000600052604160045260246000fd5b6040519080825280602002602001820160405280156102f757816020015b60608152602001906001900390816102e25790505b5093508067ffffffffffffffff81111561033a577f4e487b7100000000000000000000000000000000000000000000000000000000600052604160045260246000fd5b6040519080825280602002602001820160405280156103685781602001602082028036833780820191505090505b50925060005b8181101561054b578260050181815481106103b2577f4e487b7100000000000000000000000000000000000000000000000000000000600052603260045260246000fd5b906000526020600020906002020160000180546103ce90611d34565b80601f01602080910402602001604051908101604052809291908181526020018280546103fa90611d34565b80156104475780601f1061041c57610100808354040283529160200191610447565b820191906000526020600020905b81548152906001019060200180831161042a57829003601f168201915b5050505050858281518110610485577f4e487b7100000000000000000000000000000000000000000000000000000000600052603260045260246000fd5b60200260200101819052508260050181815481106104cc577f4e487b7100000000000000000000000000000000000000000000000000000000600052603260045260246000fd5b906000526020600020906002020160010160009054906101000a900460ff16848281518110610524577f4e487b7100000000000000000000000000000000000000000000000000000000600052603260045260246000fd5b602002602001019060ff16908160ff1681525050808061054390611d66565b91505061036e565b5081600001548260010183600201846003018560040160009054906101000a900473ffffffffffffffffffffffffffffffffffffffff168660040160149054906101000a900460ff1689898680546105a290611d34565b80601f01602080910402602001604051908101604052809291908181526020018280546105ce90611d34565b801561061b5780601f106105f05761010080835404028352916020019161061b565b820191906000526020600020905b8154815290600101906020018083116105fe57829003601f168201915b5050505050965085805461062e90611d34565b80601f016020809104026020016040519081016040528092919081815260200182805461065a90611d34565b80156106a75780601f1061067c576101008083540402835291602001916106a7565b820191906000526020600020905b81548152906001019060200180831161068a57829003601f168201915b505050505095508480546106ba90611d34565b80601f01602080910402602001604051908101604052809291908181526020018280546106e690611d34565b80156107335780601f1061070857610100808354040283529160200191610733565b820191906000526020600020905b81548152906001019060200180831161071657829003601f168201915b50505050509450995099509950995099509950995099505050919395975091939597565b60606000805467ffffffffffffffff81111561079c577f4e487b7100000000000000000000000000000000000000000000000000000000600052604160045260246000fd5b6040519080825280602002602001820160405280156107d557816020015b6107c261104c565b8152602001906001900390816107ba5790505b5090506000600190505b6000548111610ba857600160008281526020019081526020016000206040518060e00160405290816000820154815260200160018201805461082090611d34565b80601f016020809104026020016040519081016040528092919081815260200182805461084c90611d34565b80156108995780601f1061086e57610100808354040283529160200191610899565b820191906000526020600020905b81548152906001019060200180831161087c57829003601f168201915b505050505081526020016002820180546108b290611d34565b80601f01602080910402602001604051908101604052809291908181526020018280546108de90611d34565b801561092b5780601f106109005761010080835404028352916020019161092b565b820191906000526020600020905b81548152906001019060200180831161090e57829003601f168201915b5050505050815260200160038201805461094490611d34565b80601f016020809104026020016040519081016040528092919081815260200182805461097090611d34565b80156109bd5780601f10610992576101008083540402835291602001916109bd565b820191906000526020600020905b8154815290600101906020018083116109a057829003601f168201915b505050505081526020016004820160009054906101000a900473ffffffffffffffffffffffffffffffffffffffff1673ffffffffffffffffffffffffffffffffffffffff1673ffffffffffffffffffffffffffffffffffffffff1681526020016004820160149054906101000a900460ff1615151515815260200160058201805480602002602001604051908101604052809291908181526020016000905b82821015610b3d5783829060005260206000209060020201604051806040016040529081600082018054610a8f90611d34565b80601f0160208091040260200160405190810160405280929190818152602001828054610abb90611d34565b8015610b085780601f10610add57610100808354040283529160200191610b08565b820191906000526020600020905b815481529060010190602001808311610aeb57829003601f168201915b505050505081526020016001820160009054906101000a900460ff1660ff1660ff168152505081526020019060010190610a5c565b505050508152505082600183610b539190611c69565b81518110610b8a577f4e487b7100000000000000000000000000000000000000000000000000000000600052603260045260246000fd5b60200260200101819052508080610ba090611d66565b9150506107df565b508091505090565b60005481565b8051825114610bfa576040517f08c379a0000000000000000000000000000000000000000000000000000000008152600401610bf1906118f3565b60405180910390fd5b600080815480929190610c0c90611d66565b9190505550600060016000805481526020019081526020016000209050600054816000018190555085816001019080519060200190610c4c9291906110a1565b5084816002019080519060200190610c659291906110a1565b5083816003019080519060200190610c7e9291906110a1565b50338160040160006101000a81548173ffffffffffffffffffffffffffffffffffffffff021916908373ffffffffffffffffffffffffffffffffffffffff16021790555060018160040160146101000a81548160ff02191690831515021790555060005b8351811015610e0357816005016040518060400160405280868481518110610d33577f4e487b7100000000000000000000000000000000000000000000000000000000600052603260045260246000fd5b60200260200101518152602001858481518110610d79577f4e487b7100000000000000000000000000000000000000000000000000000000600052603260045260246000fd5b602002602001015160ff1681525090806001815401808255809150506001900390600052602060002090600202016000909190919091506000820151816000019080519060200190610dcc9291906110a1565b5060208201518160010160006101000a81548160ff021916908360ff16021790555050508080610dfb90611d66565b915050610ce2565b507f766fee85b31a01fa78c26bf4fe2d7ab1353217816a0a4e11951563e763d7d5d9600054878787604051610e3b949392919061192e565b60405180910390a1505050505050565b6001602052806000526040600020600091509050806000015490806001018054610e7490611d34565b80601f0160208091040260200160405190810160405280929190818152602001828054610ea090611d34565b8015610eed5780601f10610ec257610100808354040283529160200191610eed565b820191906000526020600020905b815481529060010190602001808311610ed057829003601f168201915b505050505090806002018054610f0290611d34565b80601f0160208091040260200160405190810160405280929190818152602001828054610f2e90611d34565b8015610f7b5780601f10610f5057610100808354040283529160200191610f7b565b820191906000526020600020905b815481529060010190602001808311610f5e57829003601f168201915b505050505090806003018054610f9090611d34565b80601f0160208091040260200160405190810160405280929190818152602001828054610fbc90611d34565b80156110095780601f10610fde57610100808354040283529160200191611009565b820191906000526020600020905b815481529060010190602001808311610fec57829003601f168201915b5050505050908060040160009054906101000a900473ffffffffffffffffffffffffffffffffffffffff16908060040160149054906101000a900460ff16905086565b6040518060e0016040528060008152602001606081526020016060815260200160608152602001600073ffffffffffffffffffffffffffffffffffffffff168152602001600015158152602001606081525090565b8280546110ad90611d34565b90600052602060002090601f0160209004810192826110cf5760008555611116565b82601f106110e857805160ff1916838001178555611116565b82800160010185558215611116579182015b828111156111155782518255916020019190600101906110fa565b5b5090506111239190611127565b5090565b5b80821115611140576000816000905550600101611128565b5090565b600061115761115284611ad0565b611a9f565b9050808382526020820190508260005b85811015611197578135850161117d888261129f565b845260208401935060208301925050600181019050611167565b5050509392505050565b60006111b46111af84611afc565b611a9f565b905080838252602082019050828560208602820111156111d357600080fd5b60005b8581101561120357816111e988826112de565b8452602084019350602083019250506001810190506111d6565b5050509392505050565b600061122061121b84611b28565b611a9f565b90508281526020810184848401111561123857600080fd5b611243848285611cf2565b509392505050565b600082601f83011261125c57600080fd5b813561126c848260208601611144565b91505092915050565b600082601f83011261128657600080fd5b81356112968482602086016111a1565b91505092915050565b600082601f8301126112b057600080fd5b81356112c084826020860161120d565b91505092915050565b6000813590506112d881611e4d565b92915050565b6000813590506112ed81611e64565b92915050565b600080600080600060a0868803121561130b57600080fd5b600086013567ffffffffffffffff81111561132557600080fd5b6113318882890161129f565b955050602086013567ffffffffffffffff81111561134e57600080fd5b61135a8882890161129f565b945050604086013567ffffffffffffffff81111561137757600080fd5b6113838882890161129f565b935050606086013567ffffffffffffffff8111156113a057600080fd5b6113ac8882890161124b565b925050608086013567ffffffffffffffff8111156113c957600080fd5b6113d588828901611275565b9150509295509295909350565b6000602082840312156113f457600080fd5b6000611402848285016112c9565b91505092915050565b60006114178383611658565b905092915050565b600061142b8383611796565b905092915050565b600061143f8383611847565b905092915050565b600061145383836118a2565b60208301905092915050565b61146881611c9d565b82525050565b61147781611c9d565b82525050565b600061148882611b98565b6114928185611c03565b9350836020820285016114a485611b58565b8060005b858110156114e057848403895281516114c1858261140b565b94506114cc83611bcf565b925060208a019950506001810190506114a8565b50829750879550505050505092915050565b60006114fd82611ba3565b6115078185611c14565b93508360208202850161151985611b68565b8060005b858110156115555784840389528151611536858261141f565b945061154183611bdc565b925060208a0199505060018101905061151d565b50829750879550505050505092915050565b600061157282611bae565b61157c8185611c25565b93508360208202850161158e85611b78565b8060005b858110156115ca57848403895281516115ab8582611433565b94506115b683611be9565b925060208a01995050600181019050611592565b50829750879550505050505092915050565b60006115e782611bb9565b6115f18185611c36565b93506115fc83611b88565b8060005b8381101561162d5781516116148882611447565b975061161f83611bf6565b925050600181019050611600565b5085935050505092915050565b61164381611caf565b82525050565b61165281611caf565b82525050565b600061166382611bc4565b61166d8185611c47565b935061167d818560208601611d01565b61168681611e3c565b840191505092915050565b600061169c82611bc4565b6116a68185611c58565b93506116b6818560208601611d01565b6116bf81611e3c565b840191505092915050565b60006116d7602c83611c58565b91507f4f6e6c7920746865206f776e65722063616e206d61726b206c61626f7220617360008301527f20756e617661696c61626c6500000000000000000000000000000000000000006020830152604082019050919050565b600061173d602183611c58565b91507f536b696c6c7320616e6420726174696e677320636f756e74206d69736d61746360008301527f68000000000000000000000000000000000000000000000000000000000000006020830152604082019050919050565b600060e0830160008301516117ae6000860182611884565b50602083015184820360208601526117c68282611658565b915050604083015184820360408601526117e08282611658565b915050606083015184820360608601526117fa8282611658565b915050608083015161180f608086018261145f565b5060a083015161182260a086018261163a565b5060c083015184820360c086015261183a8282611567565b9150508091505092915050565b600060408301600083015184820360008601526118648282611658565b915050602083015161187960208601826118a2565b508091505092915050565b61188d81611cdb565b82525050565b61189c81611cdb565b82525050565b6118ab81611ce5565b82525050565b600060208201905081810360008301526118cb81846114f2565b905092915050565b600060208201905081810360008301526118ec816116ca565b9050919050565b6000602082019050818103600083015261190c81611730565b9050919050565b60006020820190506119286000830184611893565b92915050565b60006080820190506119436000830187611893565b81810360208301526119558186611691565b905081810360408301526119698185611691565b9050818103606083015261197d8184611691565b905095945050505050565b600060c08201905061199d6000830189611893565b81810360208301526119af8188611691565b905081810360408301526119c38187611691565b905081810360608301526119d78186611691565b90506119e6608083018561146e565b6119f360a0830184611649565b979650505050505050565b600061010082019050611a14600083018b611893565b8181036020830152611a26818a611691565b90508181036040830152611a3a8189611691565b90508181036060830152611a4e8188611691565b9050611a5d608083018761146e565b611a6a60a0830186611649565b81810360c0830152611a7c818561147d565b905081810360e0830152611a9081846115dc565b90509998505050505050505050565b6000604051905081810181811067ffffffffffffffff82111715611ac657611ac5611e0d565b5b8060405250919050565b600067ffffffffffffffff821115611aeb57611aea611e0d565b5b602082029050602081019050919050565b600067ffffffffffffffff821115611b1757611b16611e0d565b5b602082029050602081019050919050565b600067ffffffffffffffff821115611b4357611b42611e0d565b5b601f19601f8301169050602081019050919050565b6000819050602082019050919050565b6000819050602082019050919050565b6000819050602082019050919050565b6000819050602082019050919050565b600081519050919050565b600081519050919050565b600081519050919050565b600081519050919050565b600081519050919050565b6000602082019050919050565b6000602082019050919050565b6000602082019050919050565b6000602082019050919050565b600082825260208201905092915050565b600082825260208201905092915050565b600082825260208201905092915050565b600082825260208201905092915050565b600082825260208201905092915050565b600082825260208201905092915050565b6000611c7482611cdb565b9150611c7f83611cdb565b925082821015611c9257611c91611daf565b5b828203905092915050565b6000611ca882611cbb565b9050919050565b60008115159050919050565b600073ffffffffffffffffffffffffffffffffffffffff82169050919050565b6000819050919050565b600060ff82169050919050565b82818337600083830152505050565b60005b83811015611d1f578082015181840152602081019050611d04565b83811115611d2e576000848401525b50505050565b60006002820490506001821680611d4c57607f821691505b60208210811415611d6057611d5f611dde565b5b50919050565b6000611d7182611cdb565b91507fffffffffffffffffffffffffffffffffffffffffffffffffffffffffffffffff821415611da457611da3611daf565b5b600182019050919050565b7f4e487b7100000000000000000000000000000000000000000000000000000000600052601160045260246000fd5b7f4e487b7100000000000000000000000000000000000000000000000000000000600052602260045260246000fd5b7f4e487b7100000000000000000000000000000000000000000000000000000000600052604160045260246000fd5b6000601f19601f8301169050919050565b611e5681611cdb565b8114611e6157600080fd5b50565b611e6d81611ce5565b8114611e7857600080fd5b5056fea26469706673582212204945a7acc1af5d072f39aa89d133adfccc5e97463988615a10fa73280a857bc664736f6c63430008000033",
  "immutableReferences": {},
  "source": "// SPDX-License-Identifier: MIT\r\npragma solidity ^0.8.0;\r\n\r\ncontract LaborManagement {\r\n    struct Skill {\r\n        string skillName;\r\n        uint8 rating; // Rating out of 5\r\n    }\r\n\r\n    struct Labor {\r\n        uint id;\r\n        string name;\r\n        string laborAddress;\r\n        string phone;\r\n        address laborOwner; // Owner of the labor entry\r\n        bool isAvailable;  // Availability status\r\n        Skill[] skills;\r\n    }\r\n\r\n    uint public laborCount = 0;\r\n    mapping(uint => Labor) public labors;\r\n\r\n    event LaborAdded(uint laborId, string name, string laborAddress, string phone);\r\n    event LaborMarkedAsUnavailable(uint laborId);\r\n\r\n    function addLabor(\r\n        string memory _name,\r\n        string memory _laborAddress,\r\n        string memory _phone,\r\n        string[] memory _skillNames,\r\n        uint8[] memory _ratings\r\n    ) public {\r\n        require(_skillNames.length == _ratings.length, \"Skills and ratings count mismatch\");\r\n\r\n        laborCount++;\r\n        Labor storage labor = labors[laborCount];\r\n        labor.id = laborCount;\r\n        labor.name = _name;\r\n        labor.laborAddress = _laborAddress;\r\n        labor.phone = _phone;\r\n        labor.laborOwner = msg.sender; // Set the owner of the labor entry\r\n        labor.isAvailable = true; // Set labor as available by default\r\n\r\n        for (uint256 i = 0; i < _skillNames.length; i++) {\r\n            labor.skills.push(Skill(_skillNames[i], _ratings[i]));\r\n        }\r\n\r\n        emit LaborAdded(laborCount, _name, _laborAddress, _phone);\r\n    }\r\n\r\n    function getLabor(uint256 _laborId)\r\n        public\r\n        view\r\n        returns (\r\n            uint id,\r\n            string memory name,\r\n            string memory laborAddress,\r\n            string memory phone,\r\n            address laborOwner,\r\n            bool isAvailable,\r\n            string[] memory skillNames,\r\n            uint8[] memory ratings\r\n        )\r\n    {\r\n        Labor storage labor = labors[_laborId];\r\n        uint256 skillsCount = labor.skills.length;\r\n\r\n        skillNames = new string[](skillsCount);\r\n        ratings = new uint8[](skillsCount);\r\n\r\n        for (uint256 i = 0; i < skillsCount; i++) {\r\n            skillNames[i] = labor.skills[i].skillName;\r\n            ratings[i] = labor.skills[i].rating;\r\n        }\r\n\r\n        return (labor.id, labor.name, labor.laborAddress, labor.phone, labor.laborOwner, labor.isAvailable, skillNames, ratings);\r\n    }\r\n\r\n    function fetchLabors() public view returns (Labor[] memory) {\r\n        Labor[] memory laborArray = new Labor[](laborCount);\r\n        for (uint i = 1; i <= laborCount; i++) {\r\n            laborArray[i - 1] = labors[i];\r\n        }\r\n        return laborArray;\r\n    }\r\n\r\n    function markLaborAsUnavailable(uint256 _laborId) public {\r\n        require(labors[_laborId].laborOwner == msg.sender, \"Only the owner can mark labor as unavailable\");\r\n        labors[_laborId].isAvailable = false;\r\n        emit LaborMarkedAsUnavailable(_laborId);\r\n    }\r\n}\r\n",
  "sourcePath": "D:\\New Volume D\\Mini-Project\\agrichain-backend\\contracts\\LaborManagement.sol",
  "compiler": {
    "name": "solc",
    "version": "0.8.0+commit.c7dfd78e.Emscripten.clang"
  },
  "schemaVersion": "3.4.16",
  "updatedAt": "2024-07-29T13:21:13.455Z",
  "networkType": "ethereum",
  "devdoc": {
    "kind": "dev",
    "methods": {},
    "version": 1
  },
  "userdoc": {
    "kind": "user",
    "methods": {},
    "version": 1
  }
}