{
  "contractName": "Admin",
  "abi": [
    {
      "inputs": [],
      "stateMutability": "nonpayable",
      "type": "constructor"
    },
    {
      "anonymous": false,
      "inputs": [
        {
          "indexed": false,
          "internalType": "uint256",
          "name": "id",
          "type": "uint256"
        },
        {
          "indexed": false,
          "internalType": "string",
          "name": "name",
          "type": "string"
        },
        {
          "indexed": false,
          "internalType": "uint256",
          "name": "price",
          "type": "uint256"
        }
      ],
      "name": "MachineryAdded",
      "type": "event"
    },
    {
      "anonymous": false,
      "inputs": [
        {
          "indexed": false,
          "internalType": "uint256",
          "name": "id",
          "type": "uint256"
        },
        {
          "indexed": false,
          "internalType": "address",
          "name": "buyer",
          "type": "address"
        }
      ],
      "name": "MachinerySold",
      "type": "event"
    },
    {
      "inputs": [],
      "name": "admin",
      "outputs": [
        {
          "internalType": "address",
          "name": "",
          "type": "address"
        }
      ],
      "stateMutability": "view",
      "type": "function",
      "constant": true
    },
    {
      "inputs": [
        {
          "internalType": "uint256",
          "name": "",
          "type": "uint256"
        }
      ],
      "name": "machineries",
      "outputs": [
        {
          "internalType": "uint256",
          "name": "id",
          "type": "uint256"
        },
        {
          "internalType": "string",
          "name": "name",
          "type": "string"
        },
        {
          "internalType": "uint256",
          "name": "price",
          "type": "uint256"
        },
        {
          "internalType": "bool",
          "name": "sold",
          "type": "bool"
        }
      ],
      "stateMutability": "view",
      "type": "function",
      "constant": true
    },
    {
      "inputs": [],
      "name": "machineryCount",
      "outputs": [
        {
          "internalType": "uint256",
          "name": "",
          "type": "uint256"
        }
      ],
      "stateMutability": "view",
      "type": "function",
      "constant": true
    },
    {
      "inputs": [
        {
          "internalType": "string",
          "name": "_name",
          "type": "string"
        },
        {
          "internalType": "uint256",
          "name": "_price",
          "type": "uint256"
        }
      ],
      "name": "addMachinery",
      "outputs": [],
      "stateMutability": "nonpayable",
      "type": "function"
    },
    {
      "inputs": [
        {
          "internalType": "uint256",
          "name": "_id",
          "type": "uint256"
        }
      ],
      "name": "sellMachinery",
      "outputs": [],
      "stateMutability": "payable",
      "type": "function",
      "payable": true
    }
  ],
  "bytecode": "0x608060405234801561001057600080fd5b50336000806101000a81548173ffffffffffffffffffffffffffffffffffffffff021916908373ffffffffffffffffffffffffffffffffffffffff160217905550610e15806100606000396000f3fe60806040526004361061004a5760003560e01c80632dd250ef1461004f57806332cc8060146100785780634a544fa5146100a3578063ce61388a146100bf578063f851a440146100ff575b600080fd5b34801561005b57600080fd5b50610076600480360381019061007191906107d6565b61012a565b005b34801561008457600080fd5b5061008d6102e3565b60405161009a9190610ada565b60405180910390f35b6100bd60048036038101906100b8919061082a565b6102e9565b005b3480156100cb57600080fd5b506100e660048036038101906100e1919061082a565b6105cd565b6040516100f69493929190610b5c565b60405180910390f35b34801561010b57600080fd5b50610114610692565b6040516101219190610a1f565b60405180910390f35b60008054906101000a900473ffffffffffffffffffffffffffffffffffffffff1673ffffffffffffffffffffffffffffffffffffffff163373ffffffffffffffffffffffffffffffffffffffff16146101b8576040517f08c379a00000000000000000000000000000000000000000000000000000000081526004016101af90610aba565b60405180910390fd5b600081116101fb576040517f08c379a00000000000000000000000000000000000000000000000000000000081526004016101f290610a5a565b60405180910390fd5b6001600081548092919061020e90610ce1565b919050555060405180608001604052806001548152602001838152602001828152602001600015158152506002600060015481526020019081526020016000206000820151816000015560208201518160010190805190602001906102749291906106b6565b506040820151816002015560608201518160030160006101000a81548160ff0219169083151502179055509050507f8433ef17d7478edd6fc4dac0980856dd23c8255185bc832237c43e132426c9e160015483836040516102d793929190610b1e565b60405180910390a15050565b60015481565b6000600260008381526020019081526020016000206040518060800160405290816000820154815260200160018201805461032390610caf565b80601f016020809104026020016040519081016040528092919081815260200182805461034f90610caf565b801561039c5780601f106103715761010080835404028352916020019161039c565b820191906000526020600020905b81548152906001019060200180831161037f57829003601f168201915b50505050508152602001600282015481526020016003820160009054906101000a900460ff1615151515815250509050600081600001511180156103e65750600154816000015111155b610425576040517f08c379a000000000000000000000000000000000000000000000000000000000815260040161041c90610a3a565b60405180910390fd5b8060400151341461046b576040517f08c379a000000000000000000000000000000000000000000000000000000000815260040161046290610a7a565b60405180910390fd5b8060600151156104b0576040517f08c379a00000000000000000000000000000000000000000000000000000000081526004016104a790610a9a565b60405180910390fd5b60008054906101000a900473ffffffffffffffffffffffffffffffffffffffff1673ffffffffffffffffffffffffffffffffffffffff166108fc349081150290604051600060405180830381858888f19350505050158015610516573d6000803e3d6000fd5b50600181606001901515908115158152505080600260008481526020019081526020016000206000820151816000015560208201518160010190805190602001906105629291906106b6565b506040820151816002015560608201518160030160006101000a81548160ff0219169083151502179055509050507f0fc46c7afdc2bc73ac623e07b1004beec045a4e50794e4e4dd86aced0e5ce7f482336040516105c1929190610af5565b60405180910390a15050565b60026020528060005260406000206000915090508060000154908060010180546105f690610caf565b80601f016020809104026020016040519081016040528092919081815260200182805461062290610caf565b801561066f5780601f106106445761010080835404028352916020019161066f565b820191906000526020600020905b81548152906001019060200180831161065257829003601f168201915b5050505050908060020154908060030160009054906101000a900460ff16905084565b60008054906101000a900473ffffffffffffffffffffffffffffffffffffffff1681565b8280546106c290610caf565b90600052602060002090601f0160209004810192826106e4576000855561072b565b82601f106106fd57805160ff191683800117855561072b565b8280016001018555821561072b579182015b8281111561072a57825182559160200191906001019061070f565b5b509050610738919061073c565b5090565b5b8082111561075557600081600090555060010161073d565b5090565b600061076c61076784610bd9565b610ba8565b90508281526020810184848401111561078457600080fd5b61078f848285610c6d565b509392505050565b600082601f8301126107a857600080fd5b81356107b8848260208601610759565b91505092915050565b6000813590506107d081610dc8565b92915050565b600080604083850312156107e957600080fd5b600083013567ffffffffffffffff81111561080357600080fd5b61080f85828601610797565b9250506020610820858286016107c1565b9150509250929050565b60006020828403121561083c57600080fd5b600061084a848285016107c1565b91505092915050565b61085c81610c25565b82525050565b61086b81610c37565b82525050565b600061087c82610c09565b6108868185610c14565b9350610896818560208601610c7c565b61089f81610db7565b840191505092915050565b60006108b7601883610c14565b91507f4d616368696e65727920646f6573206e6f7420657869737400000000000000006000830152602082019050919050565b60006108f7601f83610c14565b91507f5072696365206d7573742062652067726561746572207468616e207a65726f006000830152602082019050919050565b6000610937601483610c14565b91507f496e636f72726563742076616c75652073656e740000000000000000000000006000830152602082019050919050565b6000610977601683610c14565b91507f4d616368696e65727920616c726561647920736f6c64000000000000000000006000830152602082019050919050565b60006109b7602283610c14565b91507f4f6e6c792061646d696e2063616e20706572666f726d2074686973206163746960008301527f6f6e0000000000000000000000000000000000000000000000000000000000006020830152604082019050919050565b610a1981610c63565b82525050565b6000602082019050610a346000830184610853565b92915050565b60006020820190508181036000830152610a53816108aa565b9050919050565b60006020820190508181036000830152610a73816108ea565b9050919050565b60006020820190508181036000830152610a938161092a565b9050919050565b60006020820190508181036000830152610ab38161096a565b9050919050565b60006020820190508181036000830152610ad3816109aa565b9050919050565b6000602082019050610aef6000830184610a10565b92915050565b6000604082019050610b0a6000830185610a10565b610b176020830184610853565b9392505050565b6000606082019050610b336000830186610a10565b8181036020830152610b458185610871565b9050610b546040830184610a10565b949350505050565b6000608082019050610b716000830187610a10565b8181036020830152610b838186610871565b9050610b926040830185610a10565b610b9f6060830184610862565b95945050505050565b6000604051905081810181811067ffffffffffffffff82111715610bcf57610bce610d88565b5b8060405250919050565b600067ffffffffffffffff821115610bf457610bf3610d88565b5b601f19601f8301169050602081019050919050565b600081519050919050565b600082825260208201905092915050565b6000610c3082610c43565b9050919050565b60008115159050919050565b600073ffffffffffffffffffffffffffffffffffffffff82169050919050565b6000819050919050565b82818337600083830152505050565b60005b83811015610c9a578082015181840152602081019050610c7f565b83811115610ca9576000848401525b50505050565b60006002820490506001821680610cc757607f821691505b60208210811415610cdb57610cda610d59565b5b50919050565b6000610cec82610c63565b91507fffffffffffffffffffffffffffffffffffffffffffffffffffffffffffffffff821415610d1f57610d1e610d2a565b5b600182019050919050565b7f4e487b7100000000000000000000000000000000000000000000000000000000600052601160045260246000fd5b7f4e487b7100000000000000000000000000000000000000000000000000000000600052602260045260246000fd5b7f4e487b7100000000000000000000000000000000000000000000000000000000600052604160045260246000fd5b6000601f19601f8301169050919050565b610dd181610c63565b8114610ddc57600080fd5b5056fea2646970667358221220c8912e81fa67697f8e11f29d797cf27fa50bf4150a9f4dc87459bdf12651a06a64736f6c63430008000033",
  "immutableReferences": {},
  "source": "// SPDX-License-Identifier: MIT\r\npragma solidity ^0.8.0;\r\n\r\ncontract Admin {\r\n    address public admin;\r\n    struct Machinery {\r\n        uint id;\r\n        string name;\r\n        uint price;\r\n        bool sold;\r\n    }\r\n\r\n    uint public machineryCount;\r\n    mapping(uint => Machinery) public machineries;\r\n\r\n    event MachineryAdded(uint id, string name, uint price);\r\n    event MachinerySold(uint id, address buyer);\r\n\r\n    modifier onlyAdmin() {\r\n        require(msg.sender == admin, \"Only admin can perform this action\");\r\n        _;\r\n    }\r\n\r\n    constructor() {\r\n        admin = msg.sender;\r\n    }\r\n\r\n    function addMachinery(string memory _name, uint _price) public onlyAdmin {\r\n        require(_price > 0, \"Price must be greater than zero\");\r\n        machineryCount++;\r\n        machineries[machineryCount] = Machinery(machineryCount, _name, _price, false);\r\n        emit MachineryAdded(machineryCount, _name, _price);\r\n    }\r\n\r\n    function sellMachinery(uint _id) public payable {\r\n        Machinery memory machinery = machineries[_id];\r\n        require(machinery.id > 0 && machinery.id <= machineryCount, \"Machinery does not exist\");\r\n        require(msg.value == machinery.price, \"Incorrect value sent\");\r\n        require(!machinery.sold, \"Machinery already sold\");\r\n\r\n        payable(admin).transfer(msg.value);\r\n        machinery.sold = true;\r\n        machineries[_id] = machinery;\r\n        emit MachinerySold(_id, msg.sender);\r\n    }\r\n}\r\n",
  "sourcePath": "D:\\New Volume D\\Mini-Project\\agrichain-backend\\contracts\\Admin.sol",
  "compiler": {
    "name": "solc",
    "version": "0.8.0+commit.c7dfd78e.Emscripten.clang"
  },
  "schemaVersion": "3.4.16",
  "updatedAt": "2024-07-29T13:21:13.465Z",
  "networkType": "ethereum",
  "devdoc": {
    "kind": "dev",
    "methods": {},
    "version": 1
  },
  "userdoc": {
    "kind": "user",
    "methods": {},
    "version": 1
  }
}