{
  "contractName": "Articles",
  "abi": [
    {
      "inputs": [],
      "stateMutability": "nonpayable",
      "type": "constructor"
    },
    {
      "anonymous": false,
      "inputs": [
        {
          "indexed": false,
          "internalType": "uint256",
          "name": "id",
          "type": "uint256"
        },
        {
          "indexed": false,
          "internalType": "string",
          "name": "title",
          "type": "string"
        },
        {
          "indexed": false,
          "internalType": "string",
          "name": "contentIpfsHash",
          "type": "string"
        },
        {
          "indexed": false,
          "internalType": "string",
          "name": "imageIpfsHash",
          "type": "string"
        },
        {
          "indexed": false,
          "internalType": "uint256",
          "name": "timestamp",
          "type": "uint256"
        }
      ],
      "name": "ArticleAdded",
      "type": "event"
    },
    {
      "inputs": [],
      "name": "admin",
      "outputs": [
        {
          "internalType": "address",
          "name": "",
          "type": "address"
        }
      ],
      "stateMutability": "view",
      "type": "function",
      "constant": true
    },
    {
      "inputs": [],
      "name": "articleCount",
      "outputs": [
        {
          "internalType": "uint256",
          "name": "",
          "type": "uint256"
        }
      ],
      "stateMutability": "view",
      "type": "function",
      "constant": true
    },
    {
      "inputs": [
        {
          "internalType": "uint256",
          "name": "",
          "type": "uint256"
        }
      ],
      "name": "articles",
      "outputs": [
        {
          "internalType": "uint256",
          "name": "id",
          "type": "uint256"
        },
        {
          "internalType": "string",
          "name": "title",
          "type": "string"
        },
        {
          "internalType": "string",
          "name": "contentIpfsHash",
          "type": "string"
        },
        {
          "internalType": "string",
          "name": "imageIpfsHash",
          "type": "string"
        },
        {
          "internalType": "uint256",
          "name": "timestamp",
          "type": "uint256"
        }
      ],
      "stateMutability": "view",
      "type": "function",
      "constant": true
    },
    {
      "inputs": [
        {
          "internalType": "string",
          "name": "_title",
          "type": "string"
        },
        {
          "internalType": "string",
          "name": "_contentIpfsHash",
          "type": "string"
        },
        {
          "internalType": "string",
          "name": "_imageIpfsHash",
          "type": "string"
        }
      ],
      "name": "addArticle",
      "outputs": [],
      "stateMutability": "nonpayable",
      "type": "function"
    },
    {
      "inputs": [
        {
          "internalType": "uint256",
          "name": "_id",
          "type": "uint256"
        }
      ],
      "name": "getArticle",
      "outputs": [
        {
          "components": [
            {
              "internalType": "uint256",
              "name": "id",
              "type": "uint256"
            },
            {
              "internalType": "string",
              "name": "title",
              "type": "string"
            },
            {
              "internalType": "string",
              "name": "contentIpfsHash",
              "type": "string"
            },
            {
              "internalType": "string",
              "name": "imageIpfsHash",
              "type": "string"
            },
            {
              "internalType": "uint256",
              "name": "timestamp",
              "type": "uint256"
            }
          ],
          "internalType": "struct Articles.Article",
          "name": "",
          "type": "tuple"
        }
      ],
      "stateMutability": "view",
      "type": "function",
      "constant": true
    }
  ],
  "bytecode": "0x608060405234801561001057600080fd5b50336000806101000a81548173ffffffffffffffffffffffffffffffffffffffff021916908373ffffffffffffffffffffffffffffffffffffffff160217905550610d89806100606000396000f3fe608060405234801561001057600080fd5b50600436106100575760003560e01c8063414e28b01461005c57806391f0576a1461007a578063bd85d86714610096578063edcfafe6146100c6578063f851a440146100fa575b600080fd5b610064610118565b6040516100719190610a94565b60405180910390f35b610094600480360381019061008f91906107ee565b61011e565b005b6100b060048036038101906100ab9190610885565b6102b6565b6040516100bd9190610a72565b60405180910390f35b6100e060048036038101906100db9190610885565b6104ad565b6040516100f1959493929190610aaf565b60405180910390f35b61010261067b565b60405161010f9190610a37565b60405180910390f35b60015481565b60008054906101000a900473ffffffffffffffffffffffffffffffffffffffff1673ffffffffffffffffffffffffffffffffffffffff163373ffffffffffffffffffffffffffffffffffffffff16146101ac576040517f08c379a00000000000000000000000000000000000000000000000000000000081526004016101a390610a52565b60405180910390fd5b600160008154809291906101bf90610c55565b91905055506040518060a0016040528060015481526020018481526020018381526020018281526020014281525060026000600154815260200190815260200160002060008201518160000155602082015181600101908051906020019061022892919061069f565b50604082015181600201908051906020019061024592919061069f565b50606082015181600301908051906020019061026292919061069f565b50608082015181600401559050507ffd90ad29708e6a9c288d570d336f738906e55217a4f9a907ac66184c72fbd4d9600154848484426040516102a9959493929190610aaf565b60405180910390a1505050565b6102be610725565b600260008381526020019081526020016000206040518060a0016040529081600082015481526020016001820180546102f690610c23565b80601f016020809104026020016040519081016040528092919081815260200182805461032290610c23565b801561036f5780601f106103445761010080835404028352916020019161036f565b820191906000526020600020905b81548152906001019060200180831161035257829003601f168201915b5050505050815260200160028201805461038890610c23565b80601f01602080910402602001604051908101604052809291908181526020018280546103b490610c23565b80156104015780601f106103d657610100808354040283529160200191610401565b820191906000526020600020905b8154815290600101906020018083116103e457829003601f168201915b5050505050815260200160038201805461041a90610c23565b80601f016020809104026020016040519081016040528092919081815260200182805461044690610c23565b80156104935780601f1061046857610100808354040283529160200191610493565b820191906000526020600020905b81548152906001019060200180831161047657829003601f168201915b505050505081526020016004820154815250509050919050565b60026020528060005260406000206000915090508060000154908060010180546104d690610c23565b80601f016020809104026020016040519081016040528092919081815260200182805461050290610c23565b801561054f5780601f106105245761010080835404028352916020019161054f565b820191906000526020600020905b81548152906001019060200180831161053257829003601f168201915b50505050509080600201805461056490610c23565b80601f016020809104026020016040519081016040528092919081815260200182805461059090610c23565b80156105dd5780601f106105b2576101008083540402835291602001916105dd565b820191906000526020600020905b8154815290600101906020018083116105c057829003601f168201915b5050505050908060030180546105f290610c23565b80601f016020809104026020016040519081016040528092919081815260200182805461061e90610c23565b801561066b5780601f106106405761010080835404028352916020019161066b565b820191906000526020600020905b81548152906001019060200180831161064e57829003601f168201915b5050505050908060040154905085565b60008054906101000a900473ffffffffffffffffffffffffffffffffffffffff1681565b8280546106ab90610c23565b90600052602060002090601f0160209004810192826106cd5760008555610714565b82601f106106e657805160ff1916838001178555610714565b82800160010185558215610714579182015b828111156107135782518255916020019190600101906106f8565b5b5090506107219190610754565b5090565b6040518060a0016040528060008152602001606081526020016060815260200160608152602001600081525090565b5b8082111561076d576000816000905550600101610755565b5090565b600061078461077f84610b48565b610b17565b90508281526020810184848401111561079c57600080fd5b6107a7848285610be1565b509392505050565b600082601f8301126107c057600080fd5b81356107d0848260208601610771565b91505092915050565b6000813590506107e881610d3c565b92915050565b60008060006060848603121561080357600080fd5b600084013567ffffffffffffffff81111561081d57600080fd5b610829868287016107af565b935050602084013567ffffffffffffffff81111561084657600080fd5b610852868287016107af565b925050604084013567ffffffffffffffff81111561086f57600080fd5b61087b868287016107af565b9150509250925092565b60006020828403121561089757600080fd5b60006108a5848285016107d9565b91505092915050565b6108b781610ba5565b82525050565b60006108c882610b78565b6108d28185610b83565b93506108e2818560208601610bf0565b6108eb81610d2b565b840191505092915050565b600061090182610b78565b61090b8185610b94565b935061091b818560208601610bf0565b61092481610d2b565b840191505092915050565b600061093c602283610b94565b91507f4f6e6c792061646d696e2063616e20706572666f726d2074686973206163746960008301527f6f6e0000000000000000000000000000000000000000000000000000000000006020830152604082019050919050565b600060a0830160008301516109ad6000860182610a19565b50602083015184820360208601526109c582826108bd565b915050604083015184820360408601526109df82826108bd565b915050606083015184820360608601526109f982826108bd565b9150506080830151610a0e6080860182610a19565b508091505092915050565b610a2281610bd7565b82525050565b610a3181610bd7565b82525050565b6000602082019050610a4c60008301846108ae565b92915050565b60006020820190508181036000830152610a6b8161092f565b9050919050565b60006020820190508181036000830152610a8c8184610995565b905092915050565b6000602082019050610aa96000830184610a28565b92915050565b600060a082019050610ac46000830188610a28565b8181036020830152610ad681876108f6565b90508181036040830152610aea81866108f6565b90508181036060830152610afe81856108f6565b9050610b0d6080830184610a28565b9695505050505050565b6000604051905081810181811067ffffffffffffffff82111715610b3e57610b3d610cfc565b5b8060405250919050565b600067ffffffffffffffff821115610b6357610b62610cfc565b5b601f19601f8301169050602081019050919050565b600081519050919050565b600082825260208201905092915050565b600082825260208201905092915050565b6000610bb082610bb7565b9050919050565b600073ffffffffffffffffffffffffffffffffffffffff82169050919050565b6000819050919050565b82818337600083830152505050565b60005b83811015610c0e578082015181840152602081019050610bf3565b83811115610c1d576000848401525b50505050565b60006002820490506001821680610c3b57607f821691505b60208210811415610c4f57610c4e610ccd565b5b50919050565b6000610c6082610bd7565b91507fffffffffffffffffffffffffffffffffffffffffffffffffffffffffffffffff821415610c9357610c92610c9e565b5b600182019050919050565b7f4e487b7100000000000000000000000000000000000000000000000000000000600052601160045260246000fd5b7f4e487b7100000000000000000000000000000000000000000000000000000000600052602260045260246000fd5b7f4e487b7100000000000000000000000000000000000000000000000000000000600052604160045260246000fd5b6000601f19601f8301169050919050565b610d4581610bd7565b8114610d5057600080fd5b5056fea2646970667358221220f4a2e3627e523cc58ddff74c05144a7fd5c2d9f27a55286434c12fe44c798be964736f6c63430008000033",
  "immutableReferences": {},
  "source": "// SPDX-License-Identifier: MIT\r\npragma solidity ^0.8.0;\r\n\r\ncontract Articles {\r\n    address public admin;\r\n\r\n    struct Article {\r\n        uint id;\r\n        string title;\r\n        string contentIpfsHash; // Store IPFS hash of content\r\n        string imageIpfsHash;   // Store IPFS hash of image\r\n        uint timestamp;\r\n    }\r\n\r\n    uint public articleCount;\r\n    mapping(uint => Article) public articles;\r\n\r\n    event ArticleAdded(uint id, string title, string contentIpfsHash, string imageIpfsHash, uint timestamp);\r\n\r\n    modifier onlyAdmin() {\r\n        require(msg.sender == admin, \"Only admin can perform this action\");\r\n        _;\r\n    }\r\n\r\n    constructor() {\r\n        admin = msg.sender;\r\n    }\r\n\r\n    function addArticle(string memory _title, string memory _contentIpfsHash, string memory _imageIpfsHash) public onlyAdmin {\r\n        articleCount++;\r\n        articles[articleCount] = Article(articleCount, _title, _contentIpfsHash, _imageIpfsHash, block.timestamp);\r\n        emit ArticleAdded(articleCount, _title, _contentIpfsHash, _imageIpfsHash, block.timestamp);\r\n    }\r\n\r\n    function getArticle(uint _id) public view returns (Article memory) {\r\n        return articles[_id];\r\n    }\r\n}\r\n",
  "sourcePath": "D:\\New Volume D\\Mini-Project\\agrichain-backend\\contracts\\Articles.sol",
  "compiler": {
    "name": "solc",
    "version": "0.8.0+commit.c7dfd78e.Emscripten.clang"
  },
  "schemaVersion": "3.4.16",
  "updatedAt": "2024-07-29T13:21:13.469Z",
  "networkType": "ethereum",
  "devdoc": {
    "kind": "dev",
    "methods": {},
    "version": 1
  },
  "userdoc": {
    "kind": "user",
    "methods": {},
    "version": 1
  }
}