{
  "contractName": "JobMarket",
  "abi": [
    {
      "anonymous": false,
      "inputs": [
        {
          "indexed": false,
          "internalType": "uint256",
          "name": "id",
          "type": "uint256"
        }
      ],
      "name": "JobCompleted",
      "type": "event"
    },
    {
      "anonymous": false,
      "inputs": [
        {
          "indexed": false,
          "internalType": "uint256",
          "name": "id",
          "type": "uint256"
        },
        {
          "indexed": false,
          "internalType": "string",
          "name": "description",
          "type": "string"
        },
        {
          "indexed": false,
          "internalType": "uint256",
          "name": "wage",
          "type": "uint256"
        },
        {
          "indexed": false,
          "internalType": "address",
          "name": "employer",
          "type": "address"
        }
      ],
      "name": "JobPosted",
      "type": "event"
    },
    {
      "anonymous": false,
      "inputs": [
        {
          "indexed": false,
          "internalType": "uint256",
          "name": "id",
          "type": "uint256"
        },
        {
          "indexed": false,
          "internalType": "address",
          "name": "worker",
          "type": "address"
        }
      ],
      "name": "JobTaken",
      "type": "event"
    },
    {
      "inputs": [],
      "name": "jobCount",
      "outputs": [
        {
          "internalType": "uint256",
          "name": "",
          "type": "uint256"
        }
      ],
      "stateMutability": "view",
      "type": "function",
      "constant": true
    },
    {
      "inputs": [
        {
          "internalType": "uint256",
          "name": "",
          "type": "uint256"
        }
      ],
      "name": "jobs",
      "outputs": [
        {
          "internalType": "uint256",
          "name": "id",
          "type": "uint256"
        },
        {
          "internalType": "string",
          "name": "description",
          "type": "string"
        },
        {
          "internalType": "uint256",
          "name": "wage",
          "type": "uint256"
        },
        {
          "internalType": "address",
          "name": "employer",
          "type": "address"
        },
        {
          "internalType": "address",
          "name": "worker",
          "type": "address"
        },
        {
          "internalType": "bool",
          "name": "completed",
          "type": "bool"
        }
      ],
      "stateMutability": "view",
      "type": "function",
      "constant": true
    },
    {
      "inputs": [
        {
          "internalType": "string",
          "name": "_description",
          "type": "string"
        },
        {
          "internalType": "uint256",
          "name": "_wage",
          "type": "uint256"
        }
      ],
      "name": "postJob",
      "outputs": [],
      "stateMutability": "nonpayable",
      "type": "function"
    },
    {
      "inputs": [
        {
          "internalType": "uint256",
          "name": "_id",
          "type": "uint256"
        }
      ],
      "name": "takeJob",
      "outputs": [],
      "stateMutability": "nonpayable",
      "type": "function"
    },
    {
      "inputs": [
        {
          "internalType": "uint256",
          "name": "_id",
          "type": "uint256"
        }
      ],
      "name": "completeJob",
      "outputs": [],
      "stateMutability": "nonpayable",
      "type": "function"
    }
  ],
  "bytecode": "0x608060405234801561001057600080fd5b50610f18806100206000396000f3fe608060405234801561001057600080fd5b50600436106100575760003560e01c8063180aedf31461005c5780634c5d8a0f146100915780639330d9bc146100af578063a1c0d32f146100cb578063eb9a4e93146100e7575b600080fd5b6100766004803603810190610071919061091e565b610103565b60405161008896959493929190610c43565b60405180910390f35b610099610214565b6040516100a69190610bb3565b60405180910390f35b6100c960048036038101906100c4919061091e565b61021a565b005b6100e560048036038101906100e0919061091e565b61039d565b005b61010160048036038101906100fc91906108ca565b6105b8565b005b600160205280600052604060002060009150905080600001549080600101805461012c90610db2565b80601f016020809104026020016040519081016040528092919081815260200182805461015890610db2565b80156101a55780601f1061017a576101008083540402835291602001916101a5565b820191906000526020600020905b81548152906001019060200180831161018857829003601f168201915b5050505050908060020154908060030160009054906101000a900473ffffffffffffffffffffffffffffffffffffffff16908060040160009054906101000a900473ffffffffffffffffffffffffffffffffffffffff16908060040160149054906101000a900460ff16905086565b60005481565b60006001600083815260200190815260200160002090506000816000015411801561024b5750600054816000015411155b61028a576040517f08c379a000000000000000000000000000000000000000000000000000000000815260040161028190610b53565b60405180910390fd5b600073ffffffffffffffffffffffffffffffffffffffff168160040160009054906101000a900473ffffffffffffffffffffffffffffffffffffffff1673ffffffffffffffffffffffffffffffffffffffff161461031d576040517f08c379a000000000000000000000000000000000000000000000000000000000815260040161031490610b33565b60405180910390fd5b338160040160006101000a81548173ffffffffffffffffffffffffffffffffffffffff021916908373ffffffffffffffffffffffffffffffffffffffff1602179055507f63d05f037a34bfd9732c85be51fc52a421f621694ced20c350480d44d6a3b3fa8233604051610391929190610bce565b60405180910390a15050565b6000600160008381526020019081526020016000209050600081600001541180156103ce5750600054816000015411155b61040d576040517f08c379a000000000000000000000000000000000000000000000000000000000815260040161040490610b53565b60405180910390fd5b3373ffffffffffffffffffffffffffffffffffffffff168160040160009054906101000a900473ffffffffffffffffffffffffffffffffffffffff1673ffffffffffffffffffffffffffffffffffffffff161461049f576040517f08c379a000000000000000000000000000000000000000000000000000000000815260040161049690610b13565b60405180910390fd5b8060040160149054906101000a900460ff16156104f1576040517f08c379a00000000000000000000000000000000000000000000000000000000081526004016104e890610b73565b60405180910390fd5b60018160040160146101000a81548160ff0219169083151502179055508060040160009054906101000a900473ffffffffffffffffffffffffffffffffffffffff1673ffffffffffffffffffffffffffffffffffffffff166108fc82600201549081150290604051600060405180830381858888f1935050505015801561057c573d6000803e3d6000fd5b507f02244c8529cb95e213ee542e76e7776342b3dabd10203d01472bbf4441be8929826040516105ac9190610bb3565b60405180910390a15050565b600081116105fb576040517f08c379a00000000000000000000000000000000000000000000000000000000081526004016105f290610b93565b60405180910390fd5b60008081548092919061060d90610de4565b91905055506040518060c0016040528060005481526020018381526020018281526020013373ffffffffffffffffffffffffffffffffffffffff168152602001600073ffffffffffffffffffffffffffffffffffffffff1681526020016000151581525060016000805481526020019081526020016000206000820151816000015560208201518160010190805190602001906106ab9291906107aa565b506040820151816002015560608201518160030160006101000a81548173ffffffffffffffffffffffffffffffffffffffff021916908373ffffffffffffffffffffffffffffffffffffffff16021790555060808201518160040160006101000a81548173ffffffffffffffffffffffffffffffffffffffff021916908373ffffffffffffffffffffffffffffffffffffffff16021790555060a08201518160040160146101000a81548160ff0219169083151502179055509050507fdae22a6a62e5082f8a33b32bca43874d8b3379b880472eea210673a004ad47d560005483833360405161079e9493929190610bf7565b60405180910390a15050565b8280546107b690610db2565b90600052602060002090601f0160209004810192826107d8576000855561081f565b82601f106107f157805160ff191683800117855561081f565b8280016001018555821561081f579182015b8281111561081e578251825591602001919060010190610803565b5b50905061082c9190610830565b5090565b5b80821115610849576000816000905550600101610831565b5090565b600061086061085b84610cdc565b610cab565b90508281526020810184848401111561087857600080fd5b610883848285610d70565b509392505050565b600082601f83011261089c57600080fd5b81356108ac84826020860161084d565b91505092915050565b6000813590506108c481610ecb565b92915050565b600080604083850312156108dd57600080fd5b600083013567ffffffffffffffff8111156108f757600080fd5b6109038582860161088b565b9250506020610914858286016108b5565b9150509250929050565b60006020828403121561093057600080fd5b600061093e848285016108b5565b91505092915050565b61095081610d28565b82525050565b61095f81610d3a565b82525050565b600061097082610d0c565b61097a8185610d17565b935061098a818560208601610d7f565b61099381610eba565b840191505092915050565b60006109ab602983610d17565b91507f4f6e6c792061737369676e656420776f726b65722063616e20636f6d706c657460008301527f6520746865206a6f6200000000000000000000000000000000000000000000006020830152604082019050919050565b6000610a11601183610d17565b91507f4a6f6220616c72656164792074616b656e0000000000000000000000000000006000830152602082019050919050565b6000610a51601283610d17565b91507f4a6f6220646f6573206e6f7420657869737400000000000000000000000000006000830152602082019050919050565b6000610a91601583610d17565b91507f4a6f6220616c726561647920636f6d706c6574656400000000000000000000006000830152602082019050919050565b6000610ad1601e83610d17565b91507f57616765206d7573742062652067726561746572207468616e207a65726f00006000830152602082019050919050565b610b0d81610d66565b82525050565b60006020820190508181036000830152610b2c8161099e565b9050919050565b60006020820190508181036000830152610b4c81610a04565b9050919050565b60006020820190508181036000830152610b6c81610a44565b9050919050565b60006020820190508181036000830152610b8c81610a84565b9050919050565b60006020820190508181036000830152610bac81610ac4565b9050919050565b6000602082019050610bc86000830184610b04565b92915050565b6000604082019050610be36000830185610b04565b610bf06020830184610947565b9392505050565b6000608082019050610c0c6000830187610b04565b8181036020830152610c1e8186610965565b9050610c2d6040830185610b04565b610c3a6060830184610947565b95945050505050565b600060c082019050610c586000830189610b04565b8181036020830152610c6a8188610965565b9050610c796040830187610b04565b610c866060830186610947565b610c936080830185610947565b610ca060a0830184610956565b979650505050505050565b6000604051905081810181811067ffffffffffffffff82111715610cd257610cd1610e8b565b5b8060405250919050565b600067ffffffffffffffff821115610cf757610cf6610e8b565b5b601f19601f8301169050602081019050919050565b600081519050919050565b600082825260208201905092915050565b6000610d3382610d46565b9050919050565b60008115159050919050565b600073ffffffffffffffffffffffffffffffffffffffff82169050919050565b6000819050919050565b82818337600083830152505050565b60005b83811015610d9d578082015181840152602081019050610d82565b83811115610dac576000848401525b50505050565b60006002820490506001821680610dca57607f821691505b60208210811415610dde57610ddd610e5c565b5b50919050565b6000610def82610d66565b91507fffffffffffffffffffffffffffffffffffffffffffffffffffffffffffffffff821415610e2257610e21610e2d565b5b600182019050919050565b7f4e487b7100000000000000000000000000000000000000000000000000000000600052601160045260246000fd5b7f4e487b7100000000000000000000000000000000000000000000000000000000600052602260045260246000fd5b7f4e487b7100000000000000000000000000000000000000000000000000000000600052604160045260246000fd5b6000601f19601f8301169050919050565b610ed481610d66565b8114610edf57600080fd5b5056fea2646970667358221220c766da7b6e184ec3b07b60b3b86fd3fd539371d9858c145b7f896dac20762f1364736f6c63430008000033",
  "immutableReferences": {},
  "source": "// SPDX-License-Identifier: MIT\r\npragma solidity ^0.8.0;\r\n\r\ncontract JobMarket {\r\n    struct Job {\r\n        uint id;\r\n        string description;\r\n        uint wage;\r\n        address employer;\r\n        address worker;\r\n        bool completed;\r\n    }\r\n\r\n    uint public jobCount;\r\n    mapping(uint => Job) public jobs;\r\n\r\n    event JobPosted(uint id, string description, uint wage, address employer);\r\n    event JobTaken(uint id, address worker);\r\n    event JobCompleted(uint id);\r\n\r\n    function postJob(string memory _description, uint _wage) public {\r\n        require(_wage > 0, \"Wage must be greater than zero\");\r\n        jobCount++;\r\n        jobs[jobCount] = Job(jobCount, _description, _wage, msg.sender, address(0), false);\r\n        emit JobPosted(jobCount, _description, _wage, msg.sender);\r\n    }\r\n\r\n    function takeJob(uint _id) public {\r\n        Job storage job = jobs[_id];\r\n        require(job.id > 0 && job.id <= jobCount, \"Job does not exist\");\r\n        require(job.worker == address(0), \"Job already taken\");\r\n\r\n        job.worker = msg.sender;\r\n        emit JobTaken(_id, msg.sender);\r\n    }\r\n\r\n    function completeJob(uint _id) public {\r\n        Job storage job = jobs[_id];\r\n        require(job.id > 0 && job.id <= jobCount, \"Job does not exist\");\r\n        require(job.worker == msg.sender, \"Only assigned worker can complete the job\");\r\n        require(!job.completed, \"Job already completed\");\r\n\r\n        job.completed = true;\r\n        payable(job.worker).transfer(job.wage);\r\n        emit JobCompleted(_id);\r\n    }\r\n}\r\n",
  "sourcePath": "D:\\New Volume D\\Mini-Project\\agrichain-backend\\contracts\\JobMarket.sol",
  "compiler": {
    "name": "solc",
    "version": "0.8.0+commit.c7dfd78e.Emscripten.clang"
  },
  "schemaVersion": "3.4.16",
  "updatedAt": "2024-07-29T13:21:13.472Z",
  "networkType": "ethereum",
  "devdoc": {
    "kind": "dev",
    "methods": {},
    "version": 1
  },
  "userdoc": {
    "kind": "user",
    "methods": {},
    "version": 1
  }
}