{
  "contractName": "Marketplace",
  "abi": [
    {
      "anonymous": false,
      "inputs": [
        {
          "indexed": false,
          "internalType": "uint256",
          "name": "id",
          "type": "uint256"
        },
        {
          "indexed": false,
          "internalType": "string",
          "name": "name",
          "type": "string"
        },
        {
          "indexed": false,
          "internalType": "uint256",
          "name": "price",
          "type": "uint256"
        },
        {
          "indexed": false,
          "internalType": "address",
          "name": "owner",
          "type": "address"
        }
      ],
      "name": "ProductAdded",
      "type": "event"
    },
    {
      "anonymous": false,
      "inputs": [
        {
          "indexed": false,
          "internalType": "uint256",
          "name": "id",
          "type": "uint256"
        },
        {
          "indexed": false,
          "internalType": "address",
          "name": "buyer",
          "type": "address"
        },
        {
          "indexed": false,
          "internalType": "uint256",
          "name": "price",
          "type": "uint256"
        }
      ],
      "name": "ProductPurchased",
      "type": "event"
    },
    {
      "inputs": [],
      "name": "productCount",
      "outputs": [
        {
          "internalType": "uint256",
          "name": "",
          "type": "uint256"
        }
      ],
      "stateMutability": "view",
      "type": "function",
      "constant": true
    },
    {
      "inputs": [
        {
          "internalType": "uint256",
          "name": "",
          "type": "uint256"
        }
      ],
      "name": "products",
      "outputs": [
        {
          "internalType": "uint256",
          "name": "id",
          "type": "uint256"
        },
        {
          "internalType": "string",
          "name": "name",
          "type": "string"
        },
        {
          "internalType": "uint256",
          "name": "price",
          "type": "uint256"
        },
        {
          "internalType": "address payable",
          "name": "owner",
          "type": "address"
        },
        {
          "internalType": "bool",
          "name": "sold",
          "type": "bool"
        }
      ],
      "stateMutability": "view",
      "type": "function",
      "constant": true
    },
    {
      "inputs": [
        {
          "internalType": "string",
          "name": "_name",
          "type": "string"
        },
        {
          "internalType": "uint256",
          "name": "_price",
          "type": "uint256"
        }
      ],
      "name": "addProduct",
      "outputs": [],
      "stateMutability": "nonpayable",
      "type": "function"
    },
    {
      "inputs": [
        {
          "internalType": "uint256",
          "name": "_id",
          "type": "uint256"
        }
      ],
      "name": "purchaseProduct",
      "outputs": [],
      "stateMutability": "payable",
      "type": "function",
      "payable": true
    }
  ],
  "bytecode": "0x608060405234801561001057600080fd5b50610eed806100206000396000f3fe60806040526004361061003f5760003560e01c806338e76a03146100445780637acc0b2014610060578063b15247d9146100a1578063e0f6ef87146100ca575b600080fd5b61005e600480360381019061005991906108f8565b6100f5565b005b34801561006c57600080fd5b50610087600480360381019061008291906108f8565b610477565b604051610098959493929190610c14565b60405180910390f35b3480156100ad57600080fd5b506100c860048036038101906100c391906108a4565b610562565b005b3480156100d657600080fd5b506100df6106f1565b6040516100ec9190610b76565b60405180910390f35b60008060008381526020019081526020016000209050600081600001541180156101255750600154816000015411155b610164576040517f08c379a000000000000000000000000000000000000000000000000000000000815260040161015b90610ad6565b60405180910390fd5b806002015434146101aa576040517f08c379a00000000000000000000000000000000000000000000000000000000081526004016101a190610b36565b60405180910390fd5b8060030160149054906101000a900460ff16156101fc576040517f08c379a00000000000000000000000000000000000000000000000000000000081526004016101f390610b16565b60405180910390fd5b3373ffffffffffffffffffffffffffffffffffffffff168160030160009054906101000a900473ffffffffffffffffffffffffffffffffffffffff1673ffffffffffffffffffffffffffffffffffffffff16141561028f576040517f08c379a000000000000000000000000000000000000000000000000000000000815260040161028690610b56565b60405180910390fd5b8060030160009054906101000a900473ffffffffffffffffffffffffffffffffffffffff1673ffffffffffffffffffffffffffffffffffffffff166108fc349081150290604051600060405180830381858888f193505050501580156102f9573d6000803e3d6000fd5b50338160030160006101000a81548173ffffffffffffffffffffffffffffffffffffffff021916908373ffffffffffffffffffffffffffffffffffffffff16021790555060018160030160146101000a81548160ff0219169083151502179055508060008084815260200190815260200160002060008201548160000155600182018160010190805461038b90610d87565b6103969291906106f7565b50600282015481600201556003820160009054906101000a900473ffffffffffffffffffffffffffffffffffffffff168160030160006101000a81548173ffffffffffffffffffffffffffffffffffffffff021916908373ffffffffffffffffffffffffffffffffffffffff1602179055506003820160149054906101000a900460ff168160030160146101000a81548160ff0219169083151502179055509050507fa530f889d7f1bd9a73028e48944ca013ab2c6624a31e3fa26f923f4bb719abd582333460405161046b93929190610b91565b60405180910390a15050565b60006020528060005260406000206000915090508060000154908060010180546104a090610d87565b80601f01602080910402602001604051908101604052809291908181526020018280546104cc90610d87565b80156105195780601f106104ee57610100808354040283529160200191610519565b820191906000526020600020905b8154815290600101906020018083116104fc57829003601f168201915b5050505050908060020154908060030160009054906101000a900473ffffffffffffffffffffffffffffffffffffffff16908060030160149054906101000a900460ff16905085565b600081116105a5576040517f08c379a000000000000000000000000000000000000000000000000000000000815260040161059c90610af6565b60405180910390fd5b600160008154809291906105b890610db9565b91905055506040518060a0016040528060015481526020018381526020018281526020013373ffffffffffffffffffffffffffffffffffffffff168152602001600015158152506000806001548152602001908152602001600020600082015181600001556020820151816001019080519060200190610639929190610784565b506040820151816002015560608201518160030160006101000a81548173ffffffffffffffffffffffffffffffffffffffff021916908373ffffffffffffffffffffffffffffffffffffffff16021790555060808201518160030160146101000a81548160ff0219169083151502179055509050507f52402cafb2ecec722b103e8f203f83362148c168659dc96678c2c6850d12dd9f6001548383336040516106e59493929190610bc8565b60405180910390a15050565b60015481565b82805461070390610d87565b90600052602060002090601f0160209004810192826107255760008555610773565b82601f106107365780548555610773565b8280016001018555821561077357600052602060002091601f016020900482015b82811115610772578254825591600101919060010190610757565b5b509050610780919061080a565b5090565b82805461079090610d87565b90600052602060002090601f0160209004810192826107b257600085556107f9565b82601f106107cb57805160ff19168380011785556107f9565b828001600101855582156107f9579182015b828111156107f85782518255916020019190600101906107dd565b5b509050610806919061080a565b5090565b5b8082111561082357600081600090555060010161080b565b5090565b600061083a61083584610c9f565b610c6e565b90508281526020810184848401111561085257600080fd5b61085d848285610d45565b509392505050565b600082601f83011261087657600080fd5b8135610886848260208601610827565b91505092915050565b60008135905061089e81610ea0565b92915050565b600080604083850312156108b757600080fd5b600083013567ffffffffffffffff8111156108d157600080fd5b6108dd85828601610865565b92505060206108ee8582860161088f565b9150509250929050565b60006020828403121561090a57600080fd5b60006109188482850161088f565b91505092915050565b61092a81610cfd565b82525050565b61093981610ceb565b82525050565b61094881610d0f565b82525050565b600061095982610ccf565b6109638185610cda565b9350610973818560208601610d54565b61097c81610e8f565b840191505092915050565b6000610994601683610cda565b91507f50726f6475637420646f6573206e6f74206578697374000000000000000000006000830152602082019050919050565b60006109d4601f83610cda565b91507f5072696365206d7573742062652067726561746572207468616e207a65726f006000830152602082019050919050565b6000610a14601483610cda565b91507f50726f6475637420616c726561647920736f6c640000000000000000000000006000830152602082019050919050565b6000610a54601483610cda565b91507f496e636f72726563742076616c75652073656e740000000000000000000000006000830152602082019050919050565b6000610a94601983610cda565b91507f42757965722063616e6e6f7420626520746865206f776e6572000000000000006000830152602082019050919050565b610ad081610d3b565b82525050565b60006020820190508181036000830152610aef81610987565b9050919050565b60006020820190508181036000830152610b0f816109c7565b9050919050565b60006020820190508181036000830152610b2f81610a07565b9050919050565b60006020820190508181036000830152610b4f81610a47565b9050919050565b60006020820190508181036000830152610b6f81610a87565b9050919050565b6000602082019050610b8b6000830184610ac7565b92915050565b6000606082019050610ba66000830186610ac7565b610bb36020830185610930565b610bc06040830184610ac7565b949350505050565b6000608082019050610bdd6000830187610ac7565b8181036020830152610bef818661094e565b9050610bfe6040830185610ac7565b610c0b6060830184610930565b95945050505050565b600060a082019050610c296000830188610ac7565b8181036020830152610c3b818761094e565b9050610c4a6040830186610ac7565b610c576060830185610921565b610c64608083018461093f565b9695505050505050565b6000604051905081810181811067ffffffffffffffff82111715610c9557610c94610e60565b5b8060405250919050565b600067ffffffffffffffff821115610cba57610cb9610e60565b5b601f19601f8301169050602081019050919050565b600081519050919050565b600082825260208201905092915050565b6000610cf682610d1b565b9050919050565b6000610d0882610d1b565b9050919050565b60008115159050919050565b600073ffffffffffffffffffffffffffffffffffffffff82169050919050565b6000819050919050565b82818337600083830152505050565b60005b83811015610d72578082015181840152602081019050610d57565b83811115610d81576000848401525b50505050565b60006002820490506001821680610d9f57607f821691505b60208210811415610db357610db2610e31565b5b50919050565b6000610dc482610d3b565b91507fffffffffffffffffffffffffffffffffffffffffffffffffffffffffffffffff821415610df757610df6610e02565b5b600182019050919050565b7f4e487b7100000000000000000000000000000000000000000000000000000000600052601160045260246000fd5b7f4e487b7100000000000000000000000000000000000000000000000000000000600052602260045260246000fd5b7f4e487b7100000000000000000000000000000000000000000000000000000000600052604160045260246000fd5b6000601f19601f8301169050919050565b610ea981610d3b565b8114610eb457600080fd5b5056fea2646970667358221220859bee1df5c76af52dcff837d5702d7c724d1a264ba80739443b7054b17e9b2564736f6c63430008000033",
  "immutableReferences": {},
  "source": "// SPDX-License-Identifier: MIT\r\npragma solidity ^0.8.0;\r\n\r\ncontract Marketplace {\r\n    struct Product {\r\n        uint id;\r\n        string name;\r\n        uint price;\r\n        address payable owner;  // Seller's address\r\n        bool sold;\r\n    }\r\n\r\n    mapping(uint => Product) public products;\r\n    uint public productCount;\r\n\r\n    event ProductAdded(uint id, string name, uint price, address owner);\r\n    event ProductPurchased(uint id, address buyer, uint price);\r\n\r\n    function addProduct(string memory _name, uint _price) public {\r\n        require(_price > 0, \"Price must be greater than zero\");\r\n        productCount++;\r\n        products[productCount] = Product(productCount, _name, _price, payable(msg.sender), false);\r\n        emit ProductAdded(productCount, _name, _price, msg.sender);\r\n    }\r\n\r\n    function purchaseProduct(uint _id) public payable {\r\n        Product storage _product = products[_id];\r\n        require(_product.id > 0 && _product.id <= productCount, \"Product does not exist\");\r\n        require(msg.value == _product.price, \"Incorrect value sent\");\r\n        require(!_product.sold, \"Product already sold\");\r\n        require(_product.owner != msg.sender, \"Buyer cannot be the owner\");\r\n\r\n        // Transfer payment to the seller (product owner)\r\n        _product.owner.transfer(msg.value);\r\n\r\n        // Update product state\r\n        _product.owner = payable(msg.sender);\r\n        _product.sold = true;\r\n        products[_id] = _product;\r\n\r\n        emit ProductPurchased(_id, msg.sender, msg.value);\r\n    }\r\n}\r\n",
  "sourcePath": "D:\\New Volume D\\Mini-Project\\agrichain-backend\\contracts\\Marketplace.sol",
  "compiler": {
    "name": "solc",
    "version": "0.8.0+commit.c7dfd78e.Emscripten.clang"
  },
  "schemaVersion": "3.4.16",
  "updatedAt": "2024-07-29T13:21:13.449Z",
  "networkType": "ethereum",
  "devdoc": {
    "kind": "dev",
    "methods": {},
    "version": 1
  },
  "userdoc": {
    "kind": "user",
    "methods": {},
    "version": 1
  }
}