{
  "contractName": "ProductMarketplace",
  "abi": [
    {
      "anonymous": false,
      "inputs": [
        {
          "indexed": false,
          "internalType": "uint256",
          "name": "id",
          "type": "uint256"
        },
        {
          "indexed": false,
          "internalType": "string",
          "name": "name",
          "type": "string"
        },
        {
          "indexed": false,
          "internalType": "string",
          "name": "description",
          "type": "string"
        },
        {
          "indexed": false,
          "internalType": "uint256",
          "name": "price",
          "type": "uint256"
        },
        {
          "indexed": false,
          "internalType": "uint256",
          "name": "quantity",
          "type": "uint256"
        },
        {
          "indexed": false,
          "internalType": "string",
          "name": "ipfsHash",
          "type": "string"
        },
        {
          "indexed": false,
          "internalType": "address",
          "name": "owner",
          "type": "address"
        }
      ],
      "name": "ProductAdded",
      "type": "event"
    },
    {
      "anonymous": false,
      "inputs": [
        {
          "indexed": false,
          "internalType": "uint256",
          "name": "id",
          "type": "uint256"
        },
        {
          "indexed": false,
          "internalType": "address",
          "name": "buyer",
          "type": "address"
        },
        {
          "indexed": false,
          "internalType": "uint256",
          "name": "price",
          "type": "uint256"
        }
      ],
      "name": "ProductPurchased",
      "type": "event"
    },
    {
      "inputs": [],
      "name": "productCount",
      "outputs": [
        {
          "internalType": "uint256",
          "name": "",
          "type": "uint256"
        }
      ],
      "stateMutability": "view",
      "type": "function",
      "constant": true
    },
    {
      "inputs": [
        {
          "internalType": "uint256",
          "name": "",
          "type": "uint256"
        }
      ],
      "name": "products",
      "outputs": [
        {
          "internalType": "uint256",
          "name": "id",
          "type": "uint256"
        },
        {
          "internalType": "string",
          "name": "name",
          "type": "string"
        },
        {
          "internalType": "string",
          "name": "description",
          "type": "string"
        },
        {
          "internalType": "uint256",
          "name": "price",
          "type": "uint256"
        },
        {
          "internalType": "uint256",
          "name": "quantity",
          "type": "uint256"
        },
        {
          "internalType": "string",
          "name": "ipfsHash",
          "type": "string"
        },
        {
          "internalType": "address payable",
          "name": "owner",
          "type": "address"
        },
        {
          "internalType": "bool",
          "name": "sold",
          "type": "bool"
        }
      ],
      "stateMutability": "view",
      "type": "function",
      "constant": true
    },
    {
      "inputs": [
        {
          "internalType": "string",
          "name": "_name",
          "type": "string"
        },
        {
          "internalType": "string",
          "name": "_description",
          "type": "string"
        },
        {
          "internalType": "uint256",
          "name": "_price",
          "type": "uint256"
        },
        {
          "internalType": "uint256",
          "name": "_quantity",
          "type": "uint256"
        },
        {
          "internalType": "string",
          "name": "_ipfsHash",
          "type": "string"
        }
      ],
      "name": "addProduct",
      "outputs": [],
      "stateMutability": "nonpayable",
      "type": "function"
    },
    {
      "inputs": [
        {
          "internalType": "uint256",
          "name": "_id",
          "type": "uint256"
        }
      ],
      "name": "purchaseProduct",
      "outputs": [],
      "stateMutability": "payable",
      "type": "function",
      "payable": true
    }
  ],
  "bytecode": "0x608060405234801561001057600080fd5b50611448806100206000396000f3fe60806040526004361061003f5760003560e01c806338e76a03146100445780636daf0fbb146100605780637acc0b2014610089578063e0f6ef87146100cd575b600080fd5b61005e60048036038101906100599190610cd2565b6100f8565b005b34801561006c57600080fd5b5061008760048036038101906100829190610c13565b6106ae565b005b34801561009557600080fd5b506100b060048036038101906100ab9190610cd2565b6108e0565b6040516100c498979695949392919061110c565b60405180910390f35b3480156100d957600080fd5b506100e2610aed565b6040516100ef9190611036565b60405180910390f35b60008060008381526020019081526020016000206040518061010001604052908160008201548152602001600182018054610132906112e2565b80601f016020809104026020016040519081016040528092919081815260200182805461015e906112e2565b80156101ab5780601f10610180576101008083540402835291602001916101ab565b820191906000526020600020905b81548152906001019060200180831161018e57829003601f168201915b505050505081526020016002820180546101c4906112e2565b80601f01602080910402602001604051908101604052809291908181526020018280546101f0906112e2565b801561023d5780601f106102125761010080835404028352916020019161023d565b820191906000526020600020905b81548152906001019060200180831161022057829003601f168201915b50505050508152602001600382015481526020016004820154815260200160058201805461026a906112e2565b80601f0160208091040260200160405190810160405280929190818152602001828054610296906112e2565b80156102e35780601f106102b8576101008083540402835291602001916102e3565b820191906000526020600020905b8154815290600101906020018083116102c657829003601f168201915b505050505081526020016006820160009054906101000a900473ffffffffffffffffffffffffffffffffffffffff1673ffffffffffffffffffffffffffffffffffffffff1673ffffffffffffffffffffffffffffffffffffffff1681526020016006820160149054906101000a900460ff1615151515815250509050600081600001511180156103795750600154816000015111155b6103b8576040517f08c379a00000000000000000000000000000000000000000000000000000000081526004016103af90610f56565b60405180910390fd5b806060015134146103fe576040517f08c379a00000000000000000000000000000000000000000000000000000000081526004016103f590610fd6565b60405180910390fd5b8060e0015115610443576040517f08c379a000000000000000000000000000000000000000000000000000000000815260040161043a90610fb6565b60405180910390fd5b3373ffffffffffffffffffffffffffffffffffffffff168160c0015173ffffffffffffffffffffffffffffffffffffffff1614156104b6576040517f08c379a00000000000000000000000000000000000000000000000000000000081526004016104ad90611016565b60405180910390fd5b60008160800151116104fd576040517f08c379a00000000000000000000000000000000000000000000000000000000081526004016104f490610f96565b60405180910390fd5b80608001805180919061050f906112b8565b815250506000816080015114156105325760018160e00190151590811515815250505b8060008084815260200190815260200160002060008201518160000155602082015181600101908051906020019061056b929190610af3565b506040820151816002019080519060200190610588929190610af3565b50606082015181600301556080820151816004015560a08201518160050190805190602001906105b9929190610af3565b5060c08201518160060160006101000a81548173ffffffffffffffffffffffffffffffffffffffff021916908373ffffffffffffffffffffffffffffffffffffffff16021790555060e08201518160060160146101000a81548160ff0219169083151502179055509050508060c0015173ffffffffffffffffffffffffffffffffffffffff166108fc349081150290604051600060405180830381858888f1935050505015801561066e573d6000803e3d6000fd5b507fa530f889d7f1bd9a73028e48944ca013ab2c6624a31e3fa26f923f4bb719abd58233346040516106a293929190611051565b60405180910390a15050565b600083116106f1576040517f08c379a00000000000000000000000000000000000000000000000000000000081526004016106e890610f76565b60405180910390fd5b60008211610734576040517f08c379a000000000000000000000000000000000000000000000000000000000815260040161072b90610ff6565b60405180910390fd5b6001600081548092919061074790611314565b919050555060405180610100016040528060015481526020018681526020018581526020018481526020018381526020018281526020013373ffffffffffffffffffffffffffffffffffffffff1681526020016000151581525060008060015481526020019081526020016000206000820151816000015560208201518160010190805190602001906107db929190610af3565b5060408201518160020190805190602001906107f8929190610af3565b50606082015181600301556080820151816004015560a0820151816005019080519060200190610829929190610af3565b5060c08201518160060160006101000a81548173ffffffffffffffffffffffffffffffffffffffff021916908373ffffffffffffffffffffffffffffffffffffffff16021790555060e08201518160060160146101000a81548160ff0219169083151502179055509050507ff12555a56cdf01375f7212997769217a2646414bd9c51dae891f38a6372337046001548686868686336040516108d19796959493929190611088565b60405180910390a15050505050565b6000602052806000526040600020600091509050806000015490806001018054610909906112e2565b80601f0160208091040260200160405190810160405280929190818152602001828054610935906112e2565b80156109825780601f1061095757610100808354040283529160200191610982565b820191906000526020600020905b81548152906001019060200180831161096557829003601f168201915b505050505090806002018054610997906112e2565b80601f01602080910402602001604051908101604052809291908181526020018280546109c3906112e2565b8015610a105780601f106109e557610100808354040283529160200191610a10565b820191906000526020600020905b8154815290600101906020018083116109f357829003601f168201915b505050505090806003015490806004015490806005018054610a31906112e2565b80601f0160208091040260200160405190810160405280929190818152602001828054610a5d906112e2565b8015610aaa5780601f10610a7f57610100808354040283529160200191610aaa565b820191906000526020600020905b815481529060010190602001808311610a8d57829003601f168201915b5050505050908060060160009054906101000a900473ffffffffffffffffffffffffffffffffffffffff16908060060160149054906101000a900460ff16905088565b60015481565b828054610aff906112e2565b90600052602060002090601f016020900481019282610b215760008555610b68565b82601f10610b3a57805160ff1916838001178555610b68565b82800160010185558215610b68579182015b82811115610b67578251825591602001919060010190610b4c565b5b509050610b759190610b79565b5090565b5b80821115610b92576000816000905550600101610b7a565b5090565b6000610ba9610ba4846111d0565b61119f565b905082815260208101848484011115610bc157600080fd5b610bcc848285611276565b509392505050565b600082601f830112610be557600080fd5b8135610bf5848260208601610b96565b91505092915050565b600081359050610c0d816113fb565b92915050565b600080600080600060a08688031215610c2b57600080fd5b600086013567ffffffffffffffff811115610c4557600080fd5b610c5188828901610bd4565b955050602086013567ffffffffffffffff811115610c6e57600080fd5b610c7a88828901610bd4565b9450506040610c8b88828901610bfe565b9350506060610c9c88828901610bfe565b925050608086013567ffffffffffffffff811115610cb957600080fd5b610cc588828901610bd4565b9150509295509295909350565b600060208284031215610ce457600080fd5b6000610cf284828501610bfe565b91505092915050565b610d048161122e565b82525050565b610d138161121c565b82525050565b610d2281611240565b82525050565b6000610d3382611200565b610d3d818561120b565b9350610d4d818560208601611285565b610d56816113ea565b840191505092915050565b6000610d6e60168361120b565b91507f50726f6475637420646f6573206e6f74206578697374000000000000000000006000830152602082019050919050565b6000610dae601f8361120b565b91507f5072696365206d7573742062652067726561746572207468616e207a65726f006000830152602082019050919050565b6000610dee60178361120b565b91507f50726f64756374206973206f7574206f662073746f636b0000000000000000006000830152602082019050919050565b6000610e2e60148361120b565b91507f50726f6475637420616c726561647920736f6c640000000000000000000000006000830152602082019050919050565b6000610e6e60148361120b565b91507f496e636f72726563742076616c75652073656e740000000000000000000000006000830152602082019050919050565b6000610eae60228361120b565b91507f5175616e74697479206d7573742062652067726561746572207468616e207a6560008301527f726f0000000000000000000000000000000000000000000000000000000000006020830152604082019050919050565b6000610f1460198361120b565b91507f42757965722063616e6e6f7420626520746865206f776e6572000000000000006000830152602082019050919050565b610f508161126c565b82525050565b60006020820190508181036000830152610f6f81610d61565b9050919050565b60006020820190508181036000830152610f8f81610da1565b9050919050565b60006020820190508181036000830152610faf81610de1565b9050919050565b60006020820190508181036000830152610fcf81610e21565b9050919050565b60006020820190508181036000830152610fef81610e61565b9050919050565b6000602082019050818103600083015261100f81610ea1565b9050919050565b6000602082019050818103600083015261102f81610f07565b9050919050565b600060208201905061104b6000830184610f47565b92915050565b60006060820190506110666000830186610f47565b6110736020830185610d0a565b6110806040830184610f47565b949350505050565b600060e08201905061109d600083018a610f47565b81810360208301526110af8189610d28565b905081810360408301526110c38188610d28565b90506110d26060830187610f47565b6110df6080830186610f47565b81810360a08301526110f18185610d28565b905061110060c0830184610d0a565b98975050505050505050565b600061010082019050611122600083018b610f47565b8181036020830152611134818a610d28565b905081810360408301526111488189610d28565b90506111576060830188610f47565b6111646080830187610f47565b81810360a08301526111768186610d28565b905061118560c0830185610cfb565b61119260e0830184610d19565b9998505050505050505050565b6000604051905081810181811067ffffffffffffffff821117156111c6576111c56113bb565b5b8060405250919050565b600067ffffffffffffffff8211156111eb576111ea6113bb565b5b601f19601f8301169050602081019050919050565b600081519050919050565b600082825260208201905092915050565b60006112278261124c565b9050919050565b60006112398261124c565b9050919050565b60008115159050919050565b600073ffffffffffffffffffffffffffffffffffffffff82169050919050565b6000819050919050565b82818337600083830152505050565b60005b838110156112a3578082015181840152602081019050611288565b838111156112b2576000848401525b50505050565b60006112c38261126c565b915060008214156112d7576112d661135d565b5b600182039050919050565b600060028204905060018216806112fa57607f821691505b6020821081141561130e5761130d61138c565b5b50919050565b600061131f8261126c565b91507fffffffffffffffffffffffffffffffffffffffffffffffffffffffffffffffff8214156113525761135161135d565b5b600182019050919050565b7f4e487b7100000000000000000000000000000000000000000000000000000000600052601160045260246000fd5b7f4e487b7100000000000000000000000000000000000000000000000000000000600052602260045260246000fd5b7f4e487b7100000000000000000000000000000000000000000000000000000000600052604160045260246000fd5b6000601f19601f8301169050919050565b6114048161126c565b811461140f57600080fd5b5056fea2646970667358221220369d90f8ffc4bf407d52e7b16a98454664910939f39154783938cf3edb4dc65264736f6c63430008000033",
  "immutableReferences": {},
  "source": "// SPDX-License-Identifier: MIT\r\npragma solidity ^0.8.0;\r\n\r\ncontract ProductMarketplace {\r\n    struct Product {\r\n        uint id;\r\n        string name;\r\n        string description;\r\n        uint price;\r\n        uint quantity; // Number of remaining units\r\n        string ipfsHash;\r\n        address payable owner;\r\n        bool sold;\r\n    }\r\n\r\n    mapping(uint => Product) public products;\r\n    uint public productCount;\r\n\r\n    event ProductAdded(uint id, string name, string description, uint price, uint quantity, string ipfsHash, address owner);\r\n    event ProductPurchased(uint id, address buyer, uint price);\r\n\r\n    function addProduct(\r\n        string memory _name, \r\n        string memory _description, \r\n        uint _price, \r\n        uint _quantity, \r\n        string memory _ipfsHash\r\n    ) public {\r\n        require(_price > 0, \"Price must be greater than zero\");\r\n        require(_quantity > 0, \"Quantity must be greater than zero\");\r\n        productCount++;\r\n        products[productCount] = Product(\r\n            productCount, \r\n            _name, \r\n            _description, \r\n            _price, \r\n            _quantity, \r\n            _ipfsHash, \r\n            payable(msg.sender), // Seller address is set to the message sender\r\n            false\r\n        );\r\n        emit ProductAdded(\r\n            productCount, \r\n            _name, \r\n            _description, \r\n            _price, \r\n            _quantity, \r\n            _ipfsHash, \r\n            msg.sender\r\n        );\r\n    }\r\n\r\n    function purchaseProduct(uint _id) public payable {\r\n        Product memory _product = products[_id];\r\n        require(_product.id > 0 && _product.id <= productCount, \"Product does not exist\");\r\n        require(msg.value == _product.price, \"Incorrect value sent\");\r\n        require(!_product.sold, \"Product already sold\");\r\n        require(_product.owner != msg.sender, \"Buyer cannot be the owner\");\r\n        require(_product.quantity > 0, \"Product is out of stock\");\r\n\r\n        // Update the product's quantity\r\n        _product.quantity--;\r\n        if (_product.quantity == 0) {\r\n            _product.sold = true; // Mark as sold if quantity is zero\r\n        }\r\n        products[_id] = _product;\r\n\r\n        _product.owner.transfer(msg.value);\r\n        emit ProductPurchased(_id, msg.sender, msg.value);\r\n    }\r\n}\r\n",
  "sourcePath": "D:\\New Volume D\\Mini-Project\\agrichain-backend\\contracts\\ProductMarketplace.sol",
  "compiler": {
    "name": "solc",
    "version": "0.8.0+commit.c7dfd78e.Emscripten.clang"
  },
  "schemaVersion": "3.4.16",
  "updatedAt": "2024-07-29T13:21:13.481Z",
  "networkType": "ethereum",
  "devdoc": {
    "kind": "dev",
    "methods": {},
    "version": 1
  },
  "userdoc": {
    "kind": "user",
    "methods": {},
    "version": 1
  }
}